{
  "transactions": [
    {
      "hash": "0x7dd4451b22791860f6cfbde26c6682053b2324aa10bc8c6ccf24b3e96946b27d",
      "transactionType": "CREATE",
      "contractName": null,
      "contractAddress": "0xf73e23181282ed5f60316186dc90c1cd92a2d83f",
      "function": null,
      "arguments": null,
      "transaction": {
        "from": "0x79fd1dcc5b3479379c33868c402b23b7b35e77d2",
        "gas": "0xf14c1",
        "value": "0x0",
        "input": "0x60e060405234801561000f575f80fd5b50604051610f9d380380610f9d83398101604081905261002e916101a1565b8282825f61003c84826102a2565b50600161004983826102a2565b5060ff81166080524660a05261005d61006c565b60c052506103cd945050505050565b5f7f8b73c3c69bb8fe3d512ecc4cf759cc79239f7b179b0ffacaa9a75d522b39400f5f60405161009c919061035c565b6040805191829003822060208301939093528101919091527fc89efdaa54c0f20c7adf612882df0950f5a951637e0307cdcb4c672f298b8bc660608201524660808201523060a082015260c00160405160208183030381529060405280519060200120905090565b634e487b7160e01b5f52604160045260245ffd5b5f82601f830112610127575f80fd5b81516001600160401b0381111561014057610140610104565b604051601f8201601f19908116603f011681016001600160401b038111828210171561016e5761016e610104565b604052818152838201602001851015610185575f80fd5b8160208501602083015e5f918101602001919091529392505050565b5f805f606084860312156101b3575f80fd5b83516001600160401b038111156101c8575f80fd5b6101d486828701610118565b602086015190945090506001600160401b038111156101f1575f80fd5b6101fd86828701610118565b925050604084015160ff81168114610213575f80fd5b809150509250925092565b600181811c9082168061023257607f821691505b60208210810361025057634e487b7160e01b5f52602260045260245ffd5b50919050565b601f82111561029d57805f5260205f20601f840160051c8101602085101561027b5750805b601f840160051c820191505b8181101561029a575f8155600101610287565b50505b505050565b81516001600160401b038111156102bb576102bb610104565b6102cf816102c9845461021e565b84610256565b6020601f821160018114610301575f83156102ea5750848201515b5f19600385901b1c1916600184901b17845561029a565b5f84815260208120601f198516915b828110156103305787850151825560209485019460019092019101610310565b508482101561034d57868401515f19600387901b60f8161c191681555b50505050600190811b01905550565b5f8083546103698161021e565b6001821680156103805760018114610395576103c2565b60ff19831686528115158202860193506103c2565b865f5260205f205f5b838110156103ba5781548882015260019091019060200161039e565b505081860193505b509195945050505050565b60805160a05160c051610ba66103f75f395f61046f01525f61043a01525f6101590152610ba65ff3fe608060405234801561000f575f80fd5b50600436106100e5575f3560e01c806370a08231116100885780639dc29fac116100635780639dc29fac146101f0578063a9059cbb14610203578063d505accf14610216578063dd62ed3e14610229575f80fd5b806370a08231146101aa5780637ecebe00146101c957806395d89b41146101e8575f80fd5b806323b872dd116100c357806323b872dd14610141578063313ce567146101545780633644e5151461018d57806340c10f1914610195575f80fd5b806306fdde03146100e9578063095ea7b31461010757806318160ddd1461012a575b5f80fd5b6100f1610253565b6040516100fe91906108f2565b60405180910390f35b61011a610115366004610942565b6102de565b60405190151581526020016100fe565b61013360025481565b6040519081526020016100fe565b61011a61014f36600461096a565b61034a565b61017b7f000000000000000000000000000000000000000000000000000000000000000081565b60405160ff90911681526020016100fe565b610133610437565b6101a86101a3366004610942565b610491565b005b6101336101b83660046109a4565b60036020525f908152604090205481565b6101336101d73660046109a4565b60056020525f908152604090205481565b6100f161049f565b6101a86101fe366004610942565b6104ac565b61011a610211366004610942565b6104b6565b6101a86102243660046109c4565b61052c565b610133610237366004610a31565b600460209081525f928352604080842090915290825290205481565b5f805461025f90610a62565b80601f016020809104026020016040519081016040528092919081815260200182805461028b90610a62565b80156102d65780601f106102ad576101008083540402835291602001916102d6565b820191905f5260205f20905b8154815290600101906020018083116102b957829003601f168201915b505050505081565b335f8181526004602090815260408083206001600160a01b038716808552925280832085905551919290917f8c5be1e5ebec7d5bd14f71427d1e84f3dd0314c0f7b2291e5b200ac8c7c3b925906103389086815260200190565b60405180910390a35060015b92915050565b6001600160a01b0383165f9081526004602090815260408083203384529091528120545f1981146103a35761037f8382610aae565b6001600160a01b0386165f9081526004602090815260408083203384529091529020555b6001600160a01b0385165f90815260036020526040812080548592906103ca908490610aae565b90915550506001600160a01b038085165f81815260036020526040908190208054870190555190918716907fddf252ad1be2c89b69c2b068fc378daa952ba7f163c4a11628f55a4df523b3ef906104249087815260200190565b60405180910390a3506001949350505050565b5f7f0000000000000000000000000000000000000000000000000000000000000000461461046c5761046761077e565b905090565b507f000000000000000000000000000000000000000000000000000000000000000090565b61049b8282610816565b5050565b6001805461025f90610a62565b61049b8282610880565b335f908152600360205260408120805483919083906104d6908490610aae565b90915550506001600160a01b0383165f81815260036020526040908190208054850190555133907fddf252ad1be2c89b69c2b068fc378daa952ba7f163c4a11628f55a4df523b3ef906103389086815260200190565b428410156105815760405162461bcd60e51b815260206004820152601760248201527f5045524d49545f444541444c494e455f4558504952454400000000000000000060448201526064015b60405180910390fd5b5f600161058c610437565b6001600160a01b038a81165f8181526005602090815260409182902080546001810190915582517f6e71edae12b1b97f4d1f60370fef10105fa2faae0126114a169c64845d6126c98184015280840194909452938d166060840152608083018c905260a083019390935260c08083018b90528151808403909101815260e08301909152805192019190912061190160f01b6101008301526101028201929092526101228101919091526101420160408051601f1981840301815282825280516020918201205f84529083018083525260ff871690820152606081018590526080810184905260a0016020604051602081039080840390855afa158015610694573d5f803e3d5ffd5b5050604051601f1901519150506001600160a01b038116158015906106ca5750876001600160a01b0316816001600160a01b0316145b6107165760405162461bcd60e51b815260206004820152600e60248201527f494e56414c49445f5349474e45520000000000000000000000000000000000006044820152606401610578565b6001600160a01b039081165f9081526004602090815260408083208a8516808552908352928190208990555188815291928a16917f8c5be1e5ebec7d5bd14f71427d1e84f3dd0314c0f7b2291e5b200ac8c7c3b925910160405180910390a350505050505050565b5f7f8b73c3c69bb8fe3d512ecc4cf759cc79239f7b179b0ffacaa9a75d522b39400f5f6040516107ae9190610ac1565b6040805191829003822060208301939093528101919091527fc89efdaa54c0f20c7adf612882df0950f5a951637e0307cdcb4c672f298b8bc660608201524660808201523060a082015260c00160405160208183030381529060405280519060200120905090565b8060025f8282546108279190610b5d565b90915550506001600160a01b0382165f818152600360209081526040808320805486019055518481527fddf252ad1be2c89b69c2b068fc378daa952ba7f163c4a11628f55a4df523b3ef91015b60405180910390a35050565b6001600160a01b0382165f90815260036020526040812080548392906108a7908490610aae565b90915550506002805482900390556040518181525f906001600160a01b038416907fddf252ad1be2c89b69c2b068fc378daa952ba7f163c4a11628f55a4df523b3ef90602001610874565b602081525f82518060208401528060208501604085015e5f604082850101526040601f19601f83011684010191505092915050565b80356001600160a01b038116811461093d575f80fd5b919050565b5f8060408385031215610953575f80fd5b61095c83610927565b946020939093013593505050565b5f805f6060848603121561097c575f80fd5b61098584610927565b925061099360208501610927565b929592945050506040919091013590565b5f602082840312156109b4575f80fd5b6109bd82610927565b9392505050565b5f805f805f805f60e0888a0312156109da575f80fd5b6109e388610927565b96506109f160208901610927565b95506040880135945060608801359350608088013560ff81168114610a14575f80fd5b9699959850939692959460a0840135945060c09093013592915050565b5f8060408385031215610a42575f80fd5b610a4b83610927565b9150610a5960208401610927565b90509250929050565b600181811c90821680610a7657607f821691505b602082108103610a9457634e487b7160e01b5f52602260045260245ffd5b50919050565b634e487b7160e01b5f52601160045260245ffd5b8181038181111561034457610344610a9a565b5f8083545f8160011c90506001821680610adc57607f821691505b602082108103610afa57634e487b7160e01b5f52602260045260245ffd5b808015610b0e5760018114610b2357610b51565b60ff1984168752821515830287019450610b51565b5f888152602090205f5b84811015610b4957815489820152600190910190602001610b2d565b505082870194505b50929695505050505050565b8082018082111561034457610344610a9a56fea2646970667358221220e1e6bd0133b6ebe7d2621cf78161e8a0ec7cc1c56b35b923d31d6bcedec5099364736f6c634300081a0033000000000000000000000000000000000000000000000000000000000000006000000000000000000000000000000000000000000000000000000000000000a000000000000000000000000000000000000000000000000000000000000000120000000000000000000000000000000000000000000000000000000000000006546f6b656e3000000000000000000000000000000000000000000000000000000000000000000000000000000000000000000000000000000000000000000003544b300000000000000000000000000000000000000000000000000000000000",
        "nonce": "0xd4",
        "chainId": "0xaa36a7"
      },
      "additionalContracts": [],
      "isFixedGasLimit": false
    },
    {
      "hash": "0xd62800ebd9ef07033b7b00eaebd40f9727ea4b56107b4d022ba3a26fb3e3b685",
      "transactionType": "CREATE",
      "contractName": null,
      "contractAddress": "0xade676d0c749457a18f54dc32df3355ba70cfd61",
      "function": null,
      "arguments": null,
      "transaction": {
        "from": "0x79fd1dcc5b3479379c33868c402b23b7b35e77d2",
        "gas": "0xf14c1",
        "value": "0x0",
        "input": "0x60e060405234801561000f575f80fd5b50604051610f9d380380610f9d83398101604081905261002e916101a1565b8282825f61003c84826102a2565b50600161004983826102a2565b5060ff81166080524660a05261005d61006c565b60c052506103cd945050505050565b5f7f8b73c3c69bb8fe3d512ecc4cf759cc79239f7b179b0ffacaa9a75d522b39400f5f60405161009c919061035c565b6040805191829003822060208301939093528101919091527fc89efdaa54c0f20c7adf612882df0950f5a951637e0307cdcb4c672f298b8bc660608201524660808201523060a082015260c00160405160208183030381529060405280519060200120905090565b634e487b7160e01b5f52604160045260245ffd5b5f82601f830112610127575f80fd5b81516001600160401b0381111561014057610140610104565b604051601f8201601f19908116603f011681016001600160401b038111828210171561016e5761016e610104565b604052818152838201602001851015610185575f80fd5b8160208501602083015e5f918101602001919091529392505050565b5f805f606084860312156101b3575f80fd5b83516001600160401b038111156101c8575f80fd5b6101d486828701610118565b602086015190945090506001600160401b038111156101f1575f80fd5b6101fd86828701610118565b925050604084015160ff81168114610213575f80fd5b809150509250925092565b600181811c9082168061023257607f821691505b60208210810361025057634e487b7160e01b5f52602260045260245ffd5b50919050565b601f82111561029d57805f5260205f20601f840160051c8101602085101561027b5750805b601f840160051c820191505b8181101561029a575f8155600101610287565b50505b505050565b81516001600160401b038111156102bb576102bb610104565b6102cf816102c9845461021e565b84610256565b6020601f821160018114610301575f83156102ea5750848201515b5f19600385901b1c1916600184901b17845561029a565b5f84815260208120601f198516915b828110156103305787850151825560209485019460019092019101610310565b508482101561034d57868401515f19600387901b60f8161c191681555b50505050600190811b01905550565b5f8083546103698161021e565b6001821680156103805760018114610395576103c2565b60ff19831686528115158202860193506103c2565b865f5260205f205f5b838110156103ba5781548882015260019091019060200161039e565b505081860193505b509195945050505050565b60805160a05160c051610ba66103f75f395f61046f01525f61043a01525f6101590152610ba65ff3fe608060405234801561000f575f80fd5b50600436106100e5575f3560e01c806370a08231116100885780639dc29fac116100635780639dc29fac146101f0578063a9059cbb14610203578063d505accf14610216578063dd62ed3e14610229575f80fd5b806370a08231146101aa5780637ecebe00146101c957806395d89b41146101e8575f80fd5b806323b872dd116100c357806323b872dd14610141578063313ce567146101545780633644e5151461018d57806340c10f1914610195575f80fd5b806306fdde03146100e9578063095ea7b31461010757806318160ddd1461012a575b5f80fd5b6100f1610253565b6040516100fe91906108f2565b60405180910390f35b61011a610115366004610942565b6102de565b60405190151581526020016100fe565b61013360025481565b6040519081526020016100fe565b61011a61014f36600461096a565b61034a565b61017b7f000000000000000000000000000000000000000000000000000000000000000081565b60405160ff90911681526020016100fe565b610133610437565b6101a86101a3366004610942565b610491565b005b6101336101b83660046109a4565b60036020525f908152604090205481565b6101336101d73660046109a4565b60056020525f908152604090205481565b6100f161049f565b6101a86101fe366004610942565b6104ac565b61011a610211366004610942565b6104b6565b6101a86102243660046109c4565b61052c565b610133610237366004610a31565b600460209081525f928352604080842090915290825290205481565b5f805461025f90610a62565b80601f016020809104026020016040519081016040528092919081815260200182805461028b90610a62565b80156102d65780601f106102ad576101008083540402835291602001916102d6565b820191905f5260205f20905b8154815290600101906020018083116102b957829003601f168201915b505050505081565b335f8181526004602090815260408083206001600160a01b038716808552925280832085905551919290917f8c5be1e5ebec7d5bd14f71427d1e84f3dd0314c0f7b2291e5b200ac8c7c3b925906103389086815260200190565b60405180910390a35060015b92915050565b6001600160a01b0383165f9081526004602090815260408083203384529091528120545f1981146103a35761037f8382610aae565b6001600160a01b0386165f9081526004602090815260408083203384529091529020555b6001600160a01b0385165f90815260036020526040812080548592906103ca908490610aae565b90915550506001600160a01b038085165f81815260036020526040908190208054870190555190918716907fddf252ad1be2c89b69c2b068fc378daa952ba7f163c4a11628f55a4df523b3ef906104249087815260200190565b60405180910390a3506001949350505050565b5f7f0000000000000000000000000000000000000000000000000000000000000000461461046c5761046761077e565b905090565b507f000000000000000000000000000000000000000000000000000000000000000090565b61049b8282610816565b5050565b6001805461025f90610a62565b61049b8282610880565b335f908152600360205260408120805483919083906104d6908490610aae565b90915550506001600160a01b0383165f81815260036020526040908190208054850190555133907fddf252ad1be2c89b69c2b068fc378daa952ba7f163c4a11628f55a4df523b3ef906103389086815260200190565b428410156105815760405162461bcd60e51b815260206004820152601760248201527f5045524d49545f444541444c494e455f4558504952454400000000000000000060448201526064015b60405180910390fd5b5f600161058c610437565b6001600160a01b038a81165f8181526005602090815260409182902080546001810190915582517f6e71edae12b1b97f4d1f60370fef10105fa2faae0126114a169c64845d6126c98184015280840194909452938d166060840152608083018c905260a083019390935260c08083018b90528151808403909101815260e08301909152805192019190912061190160f01b6101008301526101028201929092526101228101919091526101420160408051601f1981840301815282825280516020918201205f84529083018083525260ff871690820152606081018590526080810184905260a0016020604051602081039080840390855afa158015610694573d5f803e3d5ffd5b5050604051601f1901519150506001600160a01b038116158015906106ca5750876001600160a01b0316816001600160a01b0316145b6107165760405162461bcd60e51b815260206004820152600e60248201527f494e56414c49445f5349474e45520000000000000000000000000000000000006044820152606401610578565b6001600160a01b039081165f9081526004602090815260408083208a8516808552908352928190208990555188815291928a16917f8c5be1e5ebec7d5bd14f71427d1e84f3dd0314c0f7b2291e5b200ac8c7c3b925910160405180910390a350505050505050565b5f7f8b73c3c69bb8fe3d512ecc4cf759cc79239f7b179b0ffacaa9a75d522b39400f5f6040516107ae9190610ac1565b6040805191829003822060208301939093528101919091527fc89efdaa54c0f20c7adf612882df0950f5a951637e0307cdcb4c672f298b8bc660608201524660808201523060a082015260c00160405160208183030381529060405280519060200120905090565b8060025f8282546108279190610b5d565b90915550506001600160a01b0382165f818152600360209081526040808320805486019055518481527fddf252ad1be2c89b69c2b068fc378daa952ba7f163c4a11628f55a4df523b3ef91015b60405180910390a35050565b6001600160a01b0382165f90815260036020526040812080548392906108a7908490610aae565b90915550506002805482900390556040518181525f906001600160a01b038416907fddf252ad1be2c89b69c2b068fc378daa952ba7f163c4a11628f55a4df523b3ef90602001610874565b602081525f82518060208401528060208501604085015e5f604082850101526040601f19601f83011684010191505092915050565b80356001600160a01b038116811461093d575f80fd5b919050565b5f8060408385031215610953575f80fd5b61095c83610927565b946020939093013593505050565b5f805f6060848603121561097c575f80fd5b61098584610927565b925061099360208501610927565b929592945050506040919091013590565b5f602082840312156109b4575f80fd5b6109bd82610927565b9392505050565b5f805f805f805f60e0888a0312156109da575f80fd5b6109e388610927565b96506109f160208901610927565b95506040880135945060608801359350608088013560ff81168114610a14575f80fd5b9699959850939692959460a0840135945060c09093013592915050565b5f8060408385031215610a42575f80fd5b610a4b83610927565b9150610a5960208401610927565b90509250929050565b600181811c90821680610a7657607f821691505b602082108103610a9457634e487b7160e01b5f52602260045260245ffd5b50919050565b634e487b7160e01b5f52601160045260245ffd5b8181038181111561034457610344610a9a565b5f8083545f8160011c90506001821680610adc57607f821691505b602082108103610afa57634e487b7160e01b5f52602260045260245ffd5b808015610b0e5760018114610b2357610b51565b60ff1984168752821515830287019450610b51565b5f888152602090205f5b84811015610b4957815489820152600190910190602001610b2d565b505082870194505b50929695505050505050565b8082018082111561034457610344610a9a56fea2646970667358221220e1e6bd0133b6ebe7d2621cf78161e8a0ec7cc1c56b35b923d31d6bcedec5099364736f6c634300081a0033000000000000000000000000000000000000000000000000000000000000006000000000000000000000000000000000000000000000000000000000000000a000000000000000000000000000000000000000000000000000000000000000120000000000000000000000000000000000000000000000000000000000000006546f6b656e3100000000000000000000000000000000000000000000000000000000000000000000000000000000000000000000000000000000000000000003544b310000000000000000000000000000000000000000000000000000000000",
        "nonce": "0xd5",
        "chainId": "0xaa36a7"
      },
      "additionalContracts": [],
      "isFixedGasLimit": false
    },
    {
      "hash": "0xab3977d8d54db0b24e0ed906ef9555afc76b46be4a0585673e207d68cba09a01",
      "transactionType": "CALL",
      "contractName": null,
      "contractAddress": "0xf73e23181282ed5f60316186dc90c1cd92a2d83f",
      "function": "approve(address,uint256)",
      "arguments": [
        "0x1f03f235e371202e49194F63C7096F5697848822",
        "115792089237316195423570985008687907853269984665640564039457584007913129639935"
      ],
      "transaction": {
        "from": "0x79fd1dcc5b3479379c33868c402b23b7b35e77d2",
        "to": "0xf73e23181282ed5f60316186dc90c1cd92a2d83f",
        "gas": "0xfad1",
        "value": "0x0",
        "input": "0x095ea7b30000000000000000000000001f03f235e371202e49194f63c7096f5697848822ffffffffffffffffffffffffffffffffffffffffffffffffffffffffffffffff",
        "nonce": "0xd6",
        "chainId": "0xaa36a7"
      },
      "additionalContracts": [],
      "isFixedGasLimit": false
    },
    {
      "hash": "0xbbde3a893612c4977dc6906d3f10e3c80ed0bc7b19c682eef8103a79876a7d15",
      "transactionType": "CALL",
      "contractName": null,
      "contractAddress": "0xade676d0c749457a18f54dc32df3355ba70cfd61",
      "function": "approve(address,uint256)",
      "arguments": [
        "0x1f03f235e371202e49194F63C7096F5697848822",
        "115792089237316195423570985008687907853269984665640564039457584007913129639935"
      ],
      "transaction": {
        "from": "0x79fd1dcc5b3479379c33868c402b23b7b35e77d2",
        "to": "0xade676d0c749457a18f54dc32df3355ba70cfd61",
        "gas": "0xfad1",
        "value": "0x0",
        "input": "0x095ea7b30000000000000000000000001f03f235e371202e49194f63c7096f5697848822ffffffffffffffffffffffffffffffffffffffffffffffffffffffffffffffff",
        "nonce": "0xd7",
        "chainId": "0xaa36a7"
      },
      "additionalContracts": [],
      "isFixedGasLimit": false
    },
    {
      "hash": "0xc939101539fdb99849eeaa24bbee30875a3b62019162f088b94143189445575c",
      "transactionType": "CALL",
      "contractName": null,
      "contractAddress": "0xf73e23181282ed5f60316186dc90c1cd92a2d83f",
      "function": "approve(address,uint256)",
      "arguments": [
        "0xEc9537B6D66c14E872365AB0EAE50dF7b254D4Fc",
        "115792089237316195423570985008687907853269984665640564039457584007913129639935"
      ],
      "transaction": {
        "from": "0x79fd1dcc5b3479379c33868c402b23b7b35e77d2",
        "to": "0xf73e23181282ed5f60316186dc90c1cd92a2d83f",
        "gas": "0xfad1",
        "value": "0x0",
        "input": "0x095ea7b3000000000000000000000000ec9537b6d66c14e872365ab0eae50df7b254d4fcffffffffffffffffffffffffffffffffffffffffffffffffffffffffffffffff",
        "nonce": "0xd8",
        "chainId": "0xaa36a7"
      },
      "additionalContracts": [],
      "isFixedGasLimit": false
    },
    {
      "hash": "0x31a060f049d25c34a59e014af33a3445b560c2b8decf3cab0d1b50cacb03555e",
      "transactionType": "CALL",
      "contractName": null,
      "contractAddress": "0xade676d0c749457a18f54dc32df3355ba70cfd61",
      "function": "approve(address,uint256)",
      "arguments": [
        "0xEc9537B6D66c14E872365AB0EAE50dF7b254D4Fc",
        "115792089237316195423570985008687907853269984665640564039457584007913129639935"
      ],
      "transaction": {
        "from": "0x79fd1dcc5b3479379c33868c402b23b7b35e77d2",
        "to": "0xade676d0c749457a18f54dc32df3355ba70cfd61",
        "gas": "0xfad1",
        "value": "0x0",
        "input": "0x095ea7b3000000000000000000000000ec9537b6d66c14e872365ab0eae50df7b254d4fcffffffffffffffffffffffffffffffffffffffffffffffffffffffffffffffff",
        "nonce": "0xd9",
        "chainId": "0xaa36a7"
      },
      "additionalContracts": [],
      "isFixedGasLimit": false
    },
    {
      "hash": "0x27e943b72f98a6b455d16b6e320a3a324cb94a16dc6b281aa62abbfd3b2fc663",
      "transactionType": "CALL",
      "contractName": null,
      "contractAddress": "0xf73e23181282ed5f60316186dc90c1cd92a2d83f",
      "function": "mint(address,uint256)",
      "arguments": [
        "0x79fd1DCC5B3479379c33868c402b23b7b35e77D2",
        "100000000000000000000"
      ],
      "transaction": {
        "from": "0x79fd1dcc5b3479379c33868c402b23b7b35e77d2",
        "to": "0xf73e23181282ed5f60316186dc90c1cd92a2d83f",
        "gas": "0x17086",
        "value": "0x0",
        "input": "0x40c10f1900000000000000000000000079fd1dcc5b3479379c33868c402b23b7b35e77d20000000000000000000000000000000000000000000000056bc75e2d63100000",
        "nonce": "0xda",
        "chainId": "0xaa36a7"
      },
      "additionalContracts": [],
      "isFixedGasLimit": false
    },
    {
      "hash": "0xab024f9dbb9ee50f7b234999bebba3e4694434f53afbda63b56ed5af0ef8a7fc",
      "transactionType": "CALL",
      "contractName": null,
      "contractAddress": "0xade676d0c749457a18f54dc32df3355ba70cfd61",
      "function": "mint(address,uint256)",
      "arguments": [
        "0x79fd1DCC5B3479379c33868c402b23b7b35e77D2",
        "100000000000000000000"
      ],
      "transaction": {
        "from": "0x79fd1dcc5b3479379c33868c402b23b7b35e77d2",
        "to": "0xade676d0c749457a18f54dc32df3355ba70cfd61",
        "gas": "0x17086",
        "value": "0x0",
        "input": "0x40c10f1900000000000000000000000079fd1dcc5b3479379c33868c402b23b7b35e77d20000000000000000000000000000000000000000000000056bc75e2d63100000",
        "nonce": "0xdb",
        "chainId": "0xaa36a7"
      },
      "additionalContracts": [],
      "isFixedGasLimit": false
    },
    {
      "hash": "0x39cd93d9ad06c08144938a717be9562df12aeaa2c790947ceaf97203bd9c5bcb",
      "transactionType": "CALL",
      "contractName": null,
      "contractAddress": "0xca6dbbe730e31fdaacaa096821199eeed5ad84ae",
      "function": "initialize((address,address,uint24,int24,address),uint160,bytes)",
      "arguments": [
        "(0xAde676d0c749457a18F54Dc32Df3355Ba70Cfd61, 0xF73E23181282ed5f60316186DC90C1Cd92A2D83f, 3000, 120, 0x0000000000000000000000000000000000000000)",
        "79228162514264337593543950336",
        "0x"
      ],
      "transaction": {
        "from": "0x79fd1dcc5b3479379c33868c402b23b7b35e77d2",
        "to": "0xca6dbbe730e31fdaacaa096821199eeed5ad84ae",
        "gas": "0x13b74",
        "value": "0x0",
        "input": "0x695c5bf5000000000000000000000000ade676d0c749457a18f54dc32df3355ba70cfd61000000000000000000000000f73e23181282ed5f60316186dc90c1cd92a2d83f0000000000000000000000000000000000000000000000000000000000000bb800000000000000000000000000000000000000000000000000000000000000780000000000000000000000000000000000000000000000000000000000000000000000000000000000000000000000000000000100000000000000000000000000000000000000000000000000000000000000000000000000000000000000e00000000000000000000000000000000000000000000000000000000000000000",
        "nonce": "0xdc",
        "chainId": "0xaa36a7"
      },
      "additionalContracts": [],
      "isFixedGasLimit": false
    },
    {
      "hash": "0x9046a0acc0b491b75041b9d59a5e05cdf6b957b008059d77dc2ef59b6037eb66",
      "transactionType": "CALL",
      "contractName": null,
      "contractAddress": "0x1f03f235e371202e49194f63c7096f5697848822",
      "function": "modifyLiquidity((address,address,uint24,int24,address),(int24,int24,int256,bytes32),bytes)",
      "arguments": [
        "(0xAde676d0c749457a18F54Dc32Df3355Ba70Cfd61, 0xF73E23181282ed5f60316186DC90C1Cd92A2D83f, 3000, 120, 0x0000000000000000000000000000000000000000)",
        "(-120, 120, 10000000000000000000, 0x0000000000000000000000000000000000000000000000000000000000000000)",
        "0x"
      ],
      "transaction": {
        "from": "0x79fd1dcc5b3479379c33868c402b23b7b35e77d2",
        "to": "0x1f03f235e371202e49194f63c7096f5697848822",
        "gas": "0x64755",
        "value": "0x0",
        "input": "0x5a6bcfda000000000000000000000000ade676d0c749457a18f54dc32df3355ba70cfd61000000000000000000000000f73e23181282ed5f60316186dc90c1cd92a2d83f0000000000000000000000000000000000000000000000000000000000000bb800000000000000000000000000000000000000000000000000000000000000780000000000000000000000000000000000000000000000000000000000000000ffffffffffffffffffffffffffffffffffffffffffffffffffffffffffffff8800000000000000000000000000000000000000000000000000000000000000780000000000000000000000000000000000000000000000008ac7230489e80000000000000000000000000000000000000000000000000000000000000000000000000000000000000000000000000000000000000000000000000000000001400000000000000000000000000000000000000000000000000000000000000000",
        "nonce": "0xdd",
        "chainId": "0xaa36a7"
      },
      "additionalContracts": [],
      "isFixedGasLimit": false
    }
  ],
  "receipts": [
    {
      "status": "0x1",
      "cumulativeGasUsed": "0x869146",
      "logs": [],
      "logsBloom": "0x00000000000000000000000000000000000000000000000000000000000000000000000000000000000000000000000000000000000000000000000000000000000000000000000000000000000000000000000000000000000000000000000000000000000000000000000000000000000000000000000000000000000000000000000000000000000000000000000000000000000000000000000000000000000000000000000000000000000000000000000000000000000000000000000000000000000000000000000000000000000000000000000000000000000000000000000000000000000000000000000000000000000000000000000000000000",
      "type": "0x2",
      "transactionHash": "0x7dd4451b22791860f6cfbde26c6682053b2324aa10bc8c6ccf24b3e96946b27d",
      "transactionIndex": "0x56",
      "blockHash": "0x2b5294b7db34d10d92f4ff4843f23495925af540ca443635de0b617ba60c3b03",
      "blockNumber": "0x65fd9f",
      "gasUsed": "0xb99d0",
      "effectiveGasPrice": "0xee9dbbfc",
      "from": "0x79fd1dcc5b3479379c33868c402b23b7b35e77d2",
      "to": null,
      "contractAddress": "0xf73e23181282ed5f60316186dc90c1cd92a2d83f"
    },
    {
      "status": "0x1",
      "cumulativeGasUsed": "0x922b16",
      "logs": [],
      "logsBloom": "0x00000000000000000000000000000000000000000000000000000000000000000000000000000000000000000000000000000000000000000000000000000000000000000000000000000000000000000000000000000000000000000000000000000000000000000000000000000000000000000000000000000000000000000000000000000000000000000000000000000000000000000000000000000000000000000000000000000000000000000000000000000000000000000000000000000000000000000000000000000000000000000000000000000000000000000000000000000000000000000000000000000000000000000000000000000000",
      "type": "0x2",
      "transactionHash": "0xd62800ebd9ef07033b7b00eaebd40f9727ea4b56107b4d022ba3a26fb3e3b685",
      "transactionIndex": "0x57",
      "blockHash": "0x2b5294b7db34d10d92f4ff4843f23495925af540ca443635de0b617ba60c3b03",
      "blockNumber": "0x65fd9f",
      "gasUsed": "0xb99d0",
      "effectiveGasPrice": "0xee9dbbfc",
      "from": "0x79fd1dcc5b3479379c33868c402b23b7b35e77d2",
      "to": null,
      "contractAddress": "0xade676d0c749457a18f54dc32df3355ba70cfd61"
    },
    {
      "status": "0x1",
      "cumulativeGasUsed": "0x92e0ad",
      "logs": [
        {
          "address": "0xf73e23181282ed5f60316186dc90c1cd92a2d83f",
          "topics": [
            "0x8c5be1e5ebec7d5bd14f71427d1e84f3dd0314c0f7b2291e5b200ac8c7c3b925",
            "0x00000000000000000000000079fd1dcc5b3479379c33868c402b23b7b35e77d2",
            "0x0000000000000000000000001f03f235e371202e49194f63c7096f5697848822"
          ],
          "data": "0xffffffffffffffffffffffffffffffffffffffffffffffffffffffffffffffff",
          "blockHash": "0x2b5294b7db34d10d92f4ff4843f23495925af540ca443635de0b617ba60c3b03",
          "blockNumber": "0x65fd9f",
          "transactionHash": "0xab3977d8d54db0b24e0ed906ef9555afc76b46be4a0585673e207d68cba09a01",
          "transactionIndex": "0x58",
          "logIndex": "0x52",
          "removed": false
        }
      ],
      "logsBloom": "0x00000000000000000000000000000000000000000000000000000000000000000000000000000000000000000000000000000000000000000000000000200000000000000000000000000000000000000000000040000000000000000000000000000000000002000000000000000000000000000080000000000000000000000000000000000000000000000000000000000000000000000000000000000000020000000000000000000000000000000000000000000000000000000000000100000000000000040000000000400000000000000000000000001000000000000010000100000000000000000000000000000000000000000010000000000000",
      "type": "0x2",
      "transactionHash": "0xab3977d8d54db0b24e0ed906ef9555afc76b46be4a0585673e207d68cba09a01",
      "transactionIndex": "0x58",
      "blockHash": "0x2b5294b7db34d10d92f4ff4843f23495925af540ca443635de0b617ba60c3b03",
      "blockNumber": "0x65fd9f",
      "gasUsed": "0xb597",
      "effectiveGasPrice": "0xee9dbbfc",
      "from": "0x79fd1dcc5b3479379c33868c402b23b7b35e77d2",
      "to": "0xf73e23181282ed5f60316186dc90c1cd92a2d83f",
      "contractAddress": null
    },
    {
      "status": "0x1",
      "cumulativeGasUsed": "0x939644",
      "logs": [
        {
          "address": "0xade676d0c749457a18f54dc32df3355ba70cfd61",
          "topics": [
            "0x8c5be1e5ebec7d5bd14f71427d1e84f3dd0314c0f7b2291e5b200ac8c7c3b925",
            "0x00000000000000000000000079fd1dcc5b3479379c33868c402b23b7b35e77d2",
            "0x0000000000000000000000001f03f235e371202e49194f63c7096f5697848822"
          ],
          "data": "0xffffffffffffffffffffffffffffffffffffffffffffffffffffffffffffffff",
          "blockHash": "0x2b5294b7db34d10d92f4ff4843f23495925af540ca443635de0b617ba60c3b03",
          "blockNumber": "0x65fd9f",
          "transactionHash": "0xbbde3a893612c4977dc6906d3f10e3c80ed0bc7b19c682eef8103a79876a7d15",
          "transactionIndex": "0x59",
          "logIndex": "0x53",
          "removed": false
        }
      ],
      "logsBloom": "0x00000000000000000000000000000000000000000000000000000000000000000000000000000000000000000000000000000000000000000000000000200000000000000000000000000000000000000000000040000000000000000000000000000000000002000000000000000000000000000080000000000000000000000000000000000000000000000000000040000000000000000000000000000000020000000000000000000000000000000000000000000000000000000000000100000000000010000000000000000000000000000400000000001000000000000010000100000000000000000000000000000000000000000000000000000000",
      "type": "0x2",
      "transactionHash": "0xbbde3a893612c4977dc6906d3f10e3c80ed0bc7b19c682eef8103a79876a7d15",
      "transactionIndex": "0x59",
      "blockHash": "0x2b5294b7db34d10d92f4ff4843f23495925af540ca443635de0b617ba60c3b03",
      "blockNumber": "0x65fd9f",
      "gasUsed": "0xb597",
      "effectiveGasPrice": "0xee9dbbfc",
      "from": "0x79fd1dcc5b3479379c33868c402b23b7b35e77d2",
      "to": "0xade676d0c749457a18f54dc32df3355ba70cfd61",
      "contractAddress": null
    },
    {
      "status": "0x1",
      "cumulativeGasUsed": "0x944bdb",
      "logs": [
        {
          "address": "0xf73e23181282ed5f60316186dc90c1cd92a2d83f",
          "topics": [
            "0x8c5be1e5ebec7d5bd14f71427d1e84f3dd0314c0f7b2291e5b200ac8c7c3b925",
            "0x00000000000000000000000079fd1dcc5b3479379c33868c402b23b7b35e77d2",
            "0x000000000000000000000000ec9537b6d66c14e872365ab0eae50df7b254d4fc"
          ],
          "data": "0xffffffffffffffffffffffffffffffffffffffffffffffffffffffffffffffff",
          "blockHash": "0x2b5294b7db34d10d92f4ff4843f23495925af540ca443635de0b617ba60c3b03",
          "blockNumber": "0x65fd9f",
          "transactionHash": "0xc939101539fdb99849eeaa24bbee30875a3b62019162f088b94143189445575c",
          "transactionIndex": "0x5a",
          "logIndex": "0x54",
          "removed": false
        }
      ],
      "logsBloom": "0x00000000000000000000000000000000000000000000000000000000000000000000000000000000000000000000000000000810000000000000000000200000000000000000000000000000000000000000000000000000000000000000000000000000000002000000000000000000000000000000000000000000000000000000000000000000000000000000000000000000000000000000000000000000020000000000000000000000040000000000000000000000000000000000000100000000000000040000000000400000000000000000000000000000000000000010000100000000000000000000000000000000000000000010000000000000",
      "type": "0x2",
      "transactionHash": "0xc939101539fdb99849eeaa24bbee30875a3b62019162f088b94143189445575c",
      "transactionIndex": "0x5a",
      "blockHash": "0x2b5294b7db34d10d92f4ff4843f23495925af540ca443635de0b617ba60c3b03",
      "blockNumber": "0x65fd9f",
      "gasUsed": "0xb597",
      "effectiveGasPrice": "0xee9dbbfc",
      "from": "0x79fd1dcc5b3479379c33868c402b23b7b35e77d2",
      "to": "0xf73e23181282ed5f60316186dc90c1cd92a2d83f",
      "contractAddress": null
    },
    {
      "status": "0x1",
      "cumulativeGasUsed": "0x950172",
      "logs": [
        {
          "address": "0xade676d0c749457a18f54dc32df3355ba70cfd61",
          "topics": [
            "0x8c5be1e5ebec7d5bd14f71427d1e84f3dd0314c0f7b2291e5b200ac8c7c3b925",
            "0x00000000000000000000000079fd1dcc5b3479379c33868c402b23b7b35e77d2",
            "0x000000000000000000000000ec9537b6d66c14e872365ab0eae50df7b254d4fc"
          ],
          "data": "0xffffffffffffffffffffffffffffffffffffffffffffffffffffffffffffffff",
          "blockHash": "0x2b5294b7db34d10d92f4ff4843f23495925af540ca443635de0b617ba60c3b03",
          "blockNumber": "0x65fd9f",
          "transactionHash": "0x31a060f049d25c34a59e014af33a3445b560c2b8decf3cab0d1b50cacb03555e",
          "transactionIndex": "0x5b",
          "logIndex": "0x55",
          "removed": false
        }
      ],
      "logsBloom": "0x00000000000000000000000000000000000000000000000000000000000000000000000000000000000000000000000000000810000000000000000000200000000000000000000000000000000000000000000000000000000000000000000000000000000002000000000000000000000000000000000000000000000000000000000000000000000000000000000040000000000000000000000000000000020000000000000000000000040000000000000000000000000000000000000100000000000010000000000000000000000000000400000000000000000000000010000100000000000000000000000000000000000000000000000000000000",
      "type": "0x2",
      "transactionHash": "0x31a060f049d25c34a59e014af33a3445b560c2b8decf3cab0d1b50cacb03555e",
      "transactionIndex": "0x5b",
      "blockHash": "0x2b5294b7db34d10d92f4ff4843f23495925af540ca443635de0b617ba60c3b03",
      "blockNumber": "0x65fd9f",
      "gasUsed": "0xb597",
      "effectiveGasPrice": "0xee9dbbfc",
      "from": "0x79fd1dcc5b3479379c33868c402b23b7b35e77d2",
      "to": "0xade676d0c749457a18f54dc32df3355ba70cfd61",
      "contractAddress": null
    },
    {
      "status": "0x1",
      "cumulativeGasUsed": "0x960c41",
      "logs": [
        {
          "address": "0xf73e23181282ed5f60316186dc90c1cd92a2d83f",
          "topics": [
            "0xddf252ad1be2c89b69c2b068fc378daa952ba7f163c4a11628f55a4df523b3ef",
            "0x0000000000000000000000000000000000000000000000000000000000000000",
            "0x00000000000000000000000079fd1dcc5b3479379c33868c402b23b7b35e77d2"
          ],
          "data": "0x0000000000000000000000000000000000000000000000056bc75e2d63100000",
          "blockHash": "0x2b5294b7db34d10d92f4ff4843f23495925af540ca443635de0b617ba60c3b03",
          "blockNumber": "0x65fd9f",
          "transactionHash": "0x27e943b72f98a6b455d16b6e320a3a324cb94a16dc6b281aa62abbfd3b2fc663",
          "transactionIndex": "0x5c",
          "logIndex": "0x56",
          "removed": false
        }
      ],
      "logsBloom": "0x00000000000000000000000000000000000000000000000000000000000000000000000000000000000000000000000000000000000000000000000000000000000000000000000000000008000000000000000000000000000000000000000000000000020002000000000000000800000000000000000000000010000000000000000000000000000000000000000000000000000000000000000000000000000000000000000000000000000000000000000000000000000000000000000100000002000000040000000000400000000000000000000000000000000020000000000100000000000000000000000000000000000000000010000000000000",
      "type": "0x2",
      "transactionHash": "0x27e943b72f98a6b455d16b6e320a3a324cb94a16dc6b281aa62abbfd3b2fc663",
      "transactionIndex": "0x5c",
      "blockHash": "0x2b5294b7db34d10d92f4ff4843f23495925af540ca443635de0b617ba60c3b03",
      "blockNumber": "0x65fd9f",
      "gasUsed": "0x10acf",
      "effectiveGasPrice": "0xee9dbbfc",
      "from": "0x79fd1dcc5b3479379c33868c402b23b7b35e77d2",
      "to": "0xf73e23181282ed5f60316186dc90c1cd92a2d83f",
      "contractAddress": null
    },
    {
      "status": "0x1",
      "cumulativeGasUsed": "0x971710",
      "logs": [
        {
          "address": "0xade676d0c749457a18f54dc32df3355ba70cfd61",
          "topics": [
            "0xddf252ad1be2c89b69c2b068fc378daa952ba7f163c4a11628f55a4df523b3ef",
            "0x0000000000000000000000000000000000000000000000000000000000000000",
            "0x00000000000000000000000079fd1dcc5b3479379c33868c402b23b7b35e77d2"
          ],
          "data": "0x0000000000000000000000000000000000000000000000056bc75e2d63100000",
          "blockHash": "0x2b5294b7db34d10d92f4ff4843f23495925af540ca443635de0b617ba60c3b03",
          "blockNumber": "0x65fd9f",
          "transactionHash": "0xab024f9dbb9ee50f7b234999bebba3e4694434f53afbda63b56ed5af0ef8a7fc",
          "transactionIndex": "0x5d",
          "logIndex": "0x57",
          "removed": false
        }
      ],
      "logsBloom": "0x00000000000000000000000000000000000000000000000000000000000000000000000000000000000000000000000000000000000000000000000000000000000000000000000000000008000000000000000000000000000000000000000000000000020002000000000000000800000000000000000000000010000000000000000000000000000000000000000040000000000000000000000000000000000000000000000000000000000000000000000000000000000000000000000100000002000010000000000000000000000000000400000000000000000020000000000100000000000000000000000000000000000000000000000000000000",
      "type": "0x2",
      "transactionHash": "0xab024f9dbb9ee50f7b234999bebba3e4694434f53afbda63b56ed5af0ef8a7fc",
      "transactionIndex": "0x5d",
      "blockHash": "0x2b5294b7db34d10d92f4ff4843f23495925af540ca443635de0b617ba60c3b03",
      "blockNumber": "0x65fd9f",
      "gasUsed": "0x10acf",
      "effectiveGasPrice": "0xee9dbbfc",
      "from": "0x79fd1dcc5b3479379c33868c402b23b7b35e77d2",
      "to": "0xade676d0c749457a18f54dc32df3355ba70cfd61",
      "contractAddress": null
    },
    {
      "status": "0x1",
      "cumulativeGasUsed": "0x97eec2",
      "logs": [
        {
          "address": "0xca6dbbe730e31fdaacaa096821199eeed5ad84ae",
          "topics": [
            "0xdd466e674ea557f56295e2d0218a125ea4b4f0f6f3307b95f85e6110838d6438",
            "0x6724c0f681161adef11b45c4439ddd35c426444db91bc123b602111b8d08d13c",
            "0x000000000000000000000000ade676d0c749457a18f54dc32df3355ba70cfd61",
            "0x000000000000000000000000f73e23181282ed5f60316186dc90c1cd92a2d83f"
          ],
          "data": "0x0000000000000000000000000000000000000000000000000000000000000bb80000000000000000000000000000000000000000000000000000000000000078000000000000000000000000000000000000000000000000000000000000000000000000000000000000000000000000000000010000000000000000000000000000000000000000000000000000000000000000000000000000000000000000",
          "blockHash": "0x2b5294b7db34d10d92f4ff4843f23495925af540ca443635de0b617ba60c3b03",
          "blockNumber": "0x65fd9f",
          "transactionHash": "0x39cd93d9ad06c08144938a717be9562df12aeaa2c790947ceaf97203bd9c5bcb",
          "transactionIndex": "0x5e",
          "logIndex": "0x58",
          "removed": false
        }
      ],
      "logsBloom": "0x00000000000000000000000000000000000000000000000000000000000000000000000000000000100000000000000000000000000000000000000000000000000000000000000040000000000000000000000000000000000000000000000000004000000040000000000000000100000000000400000000000000002000000000000000000008000000000000000000000001000000000000000000200000000000000000000000000000000000000000000000000000000000000000000002000000000000000000000000000000000000000000040000000010400000000000000000000000000000000000000000000800000000000000000000000000",
      "type": "0x2",
      "transactionHash": "0x39cd93d9ad06c08144938a717be9562df12aeaa2c790947ceaf97203bd9c5bcb",
      "transactionIndex": "0x5e",
      "blockHash": "0x2b5294b7db34d10d92f4ff4843f23495925af540ca443635de0b617ba60c3b03",
      "blockNumber": "0x65fd9f",
      "gasUsed": "0xd7b2",
      "effectiveGasPrice": "0xee9dbbfc",
      "from": "0x79fd1dcc5b3479379c33868c402b23b7b35e77d2",
      "to": "0xca6dbbe730e31fdaacaa096821199eeed5ad84ae",
      "contractAddress": null
    },
    {
      "status": "0x1",
      "cumulativeGasUsed": "0x9c7a71",
      "logs": [
        {
          "address": "0xca6dbbe730e31fdaacaa096821199eeed5ad84ae",
          "topics": [
            "0xf208f4912782fd25c7f114ca3723a2d5dd6f3bcc3ac8db5af63baa85f711d5ec",
            "0x6724c0f681161adef11b45c4439ddd35c426444db91bc123b602111b8d08d13c",
            "0x0000000000000000000000001f03f235e371202e49194f63c7096f5697848822"
          ],
          "data": "0xffffffffffffffffffffffffffffffffffffffffffffffffffffffffffffff8800000000000000000000000000000000000000000000000000000000000000780000000000000000000000000000000000000000000000008ac7230489e800000000000000000000000000000000000000000000000000000000000000000000",
          "blockHash": "0x2b5294b7db34d10d92f4ff4843f23495925af540ca443635de0b617ba60c3b03",
          "blockNumber": "0x65fd9f",
          "transactionHash": "0x9046a0acc0b491b75041b9d59a5e05cdf6b957b008059d77dc2ef59b6037eb66",
          "transactionIndex": "0x5f",
          "logIndex": "0x59",
          "removed": false
        },
        {
          "address": "0xade676d0c749457a18f54dc32df3355ba70cfd61",
          "topics": [
            "0xddf252ad1be2c89b69c2b068fc378daa952ba7f163c4a11628f55a4df523b3ef",
            "0x00000000000000000000000079fd1dcc5b3479379c33868c402b23b7b35e77d2",
            "0x000000000000000000000000ca6dbbe730e31fdaacaa096821199eeed5ad84ae"
          ],
          "data": "0x00000000000000000000000000000000000000000000000000d48396878c14b2",
          "blockHash": "0x2b5294b7db34d10d92f4ff4843f23495925af540ca443635de0b617ba60c3b03",
          "blockNumber": "0x65fd9f",
          "transactionHash": "0x9046a0acc0b491b75041b9d59a5e05cdf6b957b008059d77dc2ef59b6037eb66",
          "transactionIndex": "0x5f",
          "logIndex": "0x5a",
          "removed": false
        },
        {
          "address": "0xf73e23181282ed5f60316186dc90c1cd92a2d83f",
          "topics": [
            "0xddf252ad1be2c89b69c2b068fc378daa952ba7f163c4a11628f55a4df523b3ef",
            "0x00000000000000000000000079fd1dcc5b3479379c33868c402b23b7b35e77d2",
            "0x000000000000000000000000ca6dbbe730e31fdaacaa096821199eeed5ad84ae"
          ],
          "data": "0x00000000000000000000000000000000000000000000000000d48396878c14b2",
          "blockHash": "0x2b5294b7db34d10d92f4ff4843f23495925af540ca443635de0b617ba60c3b03",
          "blockNumber": "0x65fd9f",
          "transactionHash": "0x9046a0acc0b491b75041b9d59a5e05cdf6b957b008059d77dc2ef59b6037eb66",
          "transactionIndex": "0x5f",
          "logIndex": "0x5b",
          "removed": false
        }
      ],
      "logsBloom": "0x00000000000000000000000000000000000000000000000000000000000000010000000000000000100000000000000000000000000000000000000000000000000000000000000000000008000000000000000040800000000000000000000000004000000042000000000000000000000000000480000000000010000000000000000001000000000000000000000040000000000000000000000000000000000004000000000000000000000000000000000000000000000000000000000100000002000010040000000000400000040000000400000000001000400000000000000100000000000000000000000004000800000000000010000000000000",
      "type": "0x2",
      "transactionHash": "0x9046a0acc0b491b75041b9d59a5e05cdf6b957b008059d77dc2ef59b6037eb66",
      "transactionIndex": "0x5f",
      "blockHash": "0x2b5294b7db34d10d92f4ff4843f23495925af540ca443635de0b617ba60c3b03",
      "blockNumber": "0x65fd9f",
      "gasUsed": "0x48baf",
      "effectiveGasPrice": "0xee9dbbfc",
      "from": "0x79fd1dcc5b3479379c33868c402b23b7b35e77d2",
      "to": "0x1f03f235e371202e49194f63c7096f5697848822",
      "contractAddress": null
    }
  ],
  "libraries": [],
  "pending": [],
  "returns": {},
  "timestamp": 1726233396,
  "chain": 11155111,
  "commit": "9af5f69"
}