{
  "transactions": [
    {
      "hash": "0xca6a93fb74142d8cc1ba182e8ebad23aa40d93633e53719653a5f46084498b5f",
      "transactionType": "CREATE",
      "contractName": null,
      "contractAddress": "0x11d66f944aaa328ee87f5211128db92ee18eef01",
      "function": null,
      "arguments": null,
      "transaction": {
        "from": "0x79fd1dcc5b3479379c33868c402b23b7b35e77d2",
        "gas": "0xf14c1",
        "value": "0x0",
        "input": "0x60e060405234801561000f575f80fd5b50604051610f9d380380610f9d83398101604081905261002e916101a1565b8282825f61003c84826102a2565b50600161004983826102a2565b5060ff81166080524660a05261005d61006c565b60c052506103cd945050505050565b5f7f8b73c3c69bb8fe3d512ecc4cf759cc79239f7b179b0ffacaa9a75d522b39400f5f60405161009c919061035c565b6040805191829003822060208301939093528101919091527fc89efdaa54c0f20c7adf612882df0950f5a951637e0307cdcb4c672f298b8bc660608201524660808201523060a082015260c00160405160208183030381529060405280519060200120905090565b634e487b7160e01b5f52604160045260245ffd5b5f82601f830112610127575f80fd5b81516001600160401b0381111561014057610140610104565b604051601f8201601f19908116603f011681016001600160401b038111828210171561016e5761016e610104565b604052818152838201602001851015610185575f80fd5b8160208501602083015e5f918101602001919091529392505050565b5f805f606084860312156101b3575f80fd5b83516001600160401b038111156101c8575f80fd5b6101d486828701610118565b602086015190945090506001600160401b038111156101f1575f80fd5b6101fd86828701610118565b925050604084015160ff81168114610213575f80fd5b809150509250925092565b600181811c9082168061023257607f821691505b60208210810361025057634e487b7160e01b5f52602260045260245ffd5b50919050565b601f82111561029d57805f5260205f20601f840160051c8101602085101561027b5750805b601f840160051c820191505b8181101561029a575f8155600101610287565b50505b505050565b81516001600160401b038111156102bb576102bb610104565b6102cf816102c9845461021e565b84610256565b6020601f821160018114610301575f83156102ea5750848201515b5f19600385901b1c1916600184901b17845561029a565b5f84815260208120601f198516915b828110156103305787850151825560209485019460019092019101610310565b508482101561034d57868401515f19600387901b60f8161c191681555b50505050600190811b01905550565b5f8083546103698161021e565b6001821680156103805760018114610395576103c2565b60ff19831686528115158202860193506103c2565b865f5260205f205f5b838110156103ba5781548882015260019091019060200161039e565b505081860193505b509195945050505050565b60805160a05160c051610ba66103f75f395f61046f01525f61043a01525f6101590152610ba65ff3fe608060405234801561000f575f80fd5b50600436106100e5575f3560e01c806370a08231116100885780639dc29fac116100635780639dc29fac146101f0578063a9059cbb14610203578063d505accf14610216578063dd62ed3e14610229575f80fd5b806370a08231146101aa5780637ecebe00146101c957806395d89b41146101e8575f80fd5b806323b872dd116100c357806323b872dd14610141578063313ce567146101545780633644e5151461018d57806340c10f1914610195575f80fd5b806306fdde03146100e9578063095ea7b31461010757806318160ddd1461012a575b5f80fd5b6100f1610253565b6040516100fe91906108f2565b60405180910390f35b61011a610115366004610942565b6102de565b60405190151581526020016100fe565b61013360025481565b6040519081526020016100fe565b61011a61014f36600461096a565b61034a565b61017b7f000000000000000000000000000000000000000000000000000000000000000081565b60405160ff90911681526020016100fe565b610133610437565b6101a86101a3366004610942565b610491565b005b6101336101b83660046109a4565b60036020525f908152604090205481565b6101336101d73660046109a4565b60056020525f908152604090205481565b6100f161049f565b6101a86101fe366004610942565b6104ac565b61011a610211366004610942565b6104b6565b6101a86102243660046109c4565b61052c565b610133610237366004610a31565b600460209081525f928352604080842090915290825290205481565b5f805461025f90610a62565b80601f016020809104026020016040519081016040528092919081815260200182805461028b90610a62565b80156102d65780601f106102ad576101008083540402835291602001916102d6565b820191905f5260205f20905b8154815290600101906020018083116102b957829003601f168201915b505050505081565b335f8181526004602090815260408083206001600160a01b038716808552925280832085905551919290917f8c5be1e5ebec7d5bd14f71427d1e84f3dd0314c0f7b2291e5b200ac8c7c3b925906103389086815260200190565b60405180910390a35060015b92915050565b6001600160a01b0383165f9081526004602090815260408083203384529091528120545f1981146103a35761037f8382610aae565b6001600160a01b0386165f9081526004602090815260408083203384529091529020555b6001600160a01b0385165f90815260036020526040812080548592906103ca908490610aae565b90915550506001600160a01b038085165f81815260036020526040908190208054870190555190918716907fddf252ad1be2c89b69c2b068fc378daa952ba7f163c4a11628f55a4df523b3ef906104249087815260200190565b60405180910390a3506001949350505050565b5f7f0000000000000000000000000000000000000000000000000000000000000000461461046c5761046761077e565b905090565b507f000000000000000000000000000000000000000000000000000000000000000090565b61049b8282610816565b5050565b6001805461025f90610a62565b61049b8282610880565b335f908152600360205260408120805483919083906104d6908490610aae565b90915550506001600160a01b0383165f81815260036020526040908190208054850190555133907fddf252ad1be2c89b69c2b068fc378daa952ba7f163c4a11628f55a4df523b3ef906103389086815260200190565b428410156105815760405162461bcd60e51b815260206004820152601760248201527f5045524d49545f444541444c494e455f4558504952454400000000000000000060448201526064015b60405180910390fd5b5f600161058c610437565b6001600160a01b038a81165f8181526005602090815260409182902080546001810190915582517f6e71edae12b1b97f4d1f60370fef10105fa2faae0126114a169c64845d6126c98184015280840194909452938d166060840152608083018c905260a083019390935260c08083018b90528151808403909101815260e08301909152805192019190912061190160f01b6101008301526101028201929092526101228101919091526101420160408051601f1981840301815282825280516020918201205f84529083018083525260ff871690820152606081018590526080810184905260a0016020604051602081039080840390855afa158015610694573d5f803e3d5ffd5b5050604051601f1901519150506001600160a01b038116158015906106ca5750876001600160a01b0316816001600160a01b0316145b6107165760405162461bcd60e51b815260206004820152600e60248201527f494e56414c49445f5349474e45520000000000000000000000000000000000006044820152606401610578565b6001600160a01b039081165f9081526004602090815260408083208a8516808552908352928190208990555188815291928a16917f8c5be1e5ebec7d5bd14f71427d1e84f3dd0314c0f7b2291e5b200ac8c7c3b925910160405180910390a350505050505050565b5f7f8b73c3c69bb8fe3d512ecc4cf759cc79239f7b179b0ffacaa9a75d522b39400f5f6040516107ae9190610ac1565b6040805191829003822060208301939093528101919091527fc89efdaa54c0f20c7adf612882df0950f5a951637e0307cdcb4c672f298b8bc660608201524660808201523060a082015260c00160405160208183030381529060405280519060200120905090565b8060025f8282546108279190610b5d565b90915550506001600160a01b0382165f818152600360209081526040808320805486019055518481527fddf252ad1be2c89b69c2b068fc378daa952ba7f163c4a11628f55a4df523b3ef91015b60405180910390a35050565b6001600160a01b0382165f90815260036020526040812080548392906108a7908490610aae565b90915550506002805482900390556040518181525f906001600160a01b038416907fddf252ad1be2c89b69c2b068fc378daa952ba7f163c4a11628f55a4df523b3ef90602001610874565b602081525f82518060208401528060208501604085015e5f604082850101526040601f19601f83011684010191505092915050565b80356001600160a01b038116811461093d575f80fd5b919050565b5f8060408385031215610953575f80fd5b61095c83610927565b946020939093013593505050565b5f805f6060848603121561097c575f80fd5b61098584610927565b925061099360208501610927565b929592945050506040919091013590565b5f602082840312156109b4575f80fd5b6109bd82610927565b9392505050565b5f805f805f805f60e0888a0312156109da575f80fd5b6109e388610927565b96506109f160208901610927565b95506040880135945060608801359350608088013560ff81168114610a14575f80fd5b9699959850939692959460a0840135945060c09093013592915050565b5f8060408385031215610a42575f80fd5b610a4b83610927565b9150610a5960208401610927565b90509250929050565b600181811c90821680610a7657607f821691505b602082108103610a9457634e487b7160e01b5f52602260045260245ffd5b50919050565b634e487b7160e01b5f52601160045260245ffd5b8181038181111561034457610344610a9a565b5f8083545f8160011c90506001821680610adc57607f821691505b602082108103610afa57634e487b7160e01b5f52602260045260245ffd5b808015610b0e5760018114610b2357610b51565b60ff1984168752821515830287019450610b51565b5f888152602090205f5b84811015610b4957815489820152600190910190602001610b2d565b505082870194505b50929695505050505050565b8082018082111561034457610344610a9a56fea2646970667358221220e1e6bd0133b6ebe7d2621cf78161e8a0ec7cc1c56b35b923d31d6bcedec5099364736f6c634300081a0033000000000000000000000000000000000000000000000000000000000000006000000000000000000000000000000000000000000000000000000000000000a000000000000000000000000000000000000000000000000000000000000000120000000000000000000000000000000000000000000000000000000000000006546f6b656e3000000000000000000000000000000000000000000000000000000000000000000000000000000000000000000000000000000000000000000003544b300000000000000000000000000000000000000000000000000000000000",
        "nonce": "0xde",
        "chainId": "0xaa36a7"
      },
      "additionalContracts": [],
      "isFixedGasLimit": false
    },
    {
      "hash": "0x9555a8816bd706db3f14ff27e1628ae2215b417026150b860715151f76d9dea5",
      "transactionType": "CREATE",
      "contractName": null,
      "contractAddress": "0xdd8fb729b785f1c074a191f7f021fcba10142292",
      "function": null,
      "arguments": null,
      "transaction": {
        "from": "0x79fd1dcc5b3479379c33868c402b23b7b35e77d2",
        "gas": "0xf14c1",
        "value": "0x0",
        "input": "0x60e060405234801561000f575f80fd5b50604051610f9d380380610f9d83398101604081905261002e916101a1565b8282825f61003c84826102a2565b50600161004983826102a2565b5060ff81166080524660a05261005d61006c565b60c052506103cd945050505050565b5f7f8b73c3c69bb8fe3d512ecc4cf759cc79239f7b179b0ffacaa9a75d522b39400f5f60405161009c919061035c565b6040805191829003822060208301939093528101919091527fc89efdaa54c0f20c7adf612882df0950f5a951637e0307cdcb4c672f298b8bc660608201524660808201523060a082015260c00160405160208183030381529060405280519060200120905090565b634e487b7160e01b5f52604160045260245ffd5b5f82601f830112610127575f80fd5b81516001600160401b0381111561014057610140610104565b604051601f8201601f19908116603f011681016001600160401b038111828210171561016e5761016e610104565b604052818152838201602001851015610185575f80fd5b8160208501602083015e5f918101602001919091529392505050565b5f805f606084860312156101b3575f80fd5b83516001600160401b038111156101c8575f80fd5b6101d486828701610118565b602086015190945090506001600160401b038111156101f1575f80fd5b6101fd86828701610118565b925050604084015160ff81168114610213575f80fd5b809150509250925092565b600181811c9082168061023257607f821691505b60208210810361025057634e487b7160e01b5f52602260045260245ffd5b50919050565b601f82111561029d57805f5260205f20601f840160051c8101602085101561027b5750805b601f840160051c820191505b8181101561029a575f8155600101610287565b50505b505050565b81516001600160401b038111156102bb576102bb610104565b6102cf816102c9845461021e565b84610256565b6020601f821160018114610301575f83156102ea5750848201515b5f19600385901b1c1916600184901b17845561029a565b5f84815260208120601f198516915b828110156103305787850151825560209485019460019092019101610310565b508482101561034d57868401515f19600387901b60f8161c191681555b50505050600190811b01905550565b5f8083546103698161021e565b6001821680156103805760018114610395576103c2565b60ff19831686528115158202860193506103c2565b865f5260205f205f5b838110156103ba5781548882015260019091019060200161039e565b505081860193505b509195945050505050565b60805160a05160c051610ba66103f75f395f61046f01525f61043a01525f6101590152610ba65ff3fe608060405234801561000f575f80fd5b50600436106100e5575f3560e01c806370a08231116100885780639dc29fac116100635780639dc29fac146101f0578063a9059cbb14610203578063d505accf14610216578063dd62ed3e14610229575f80fd5b806370a08231146101aa5780637ecebe00146101c957806395d89b41146101e8575f80fd5b806323b872dd116100c357806323b872dd14610141578063313ce567146101545780633644e5151461018d57806340c10f1914610195575f80fd5b806306fdde03146100e9578063095ea7b31461010757806318160ddd1461012a575b5f80fd5b6100f1610253565b6040516100fe91906108f2565b60405180910390f35b61011a610115366004610942565b6102de565b60405190151581526020016100fe565b61013360025481565b6040519081526020016100fe565b61011a61014f36600461096a565b61034a565b61017b7f000000000000000000000000000000000000000000000000000000000000000081565b60405160ff90911681526020016100fe565b610133610437565b6101a86101a3366004610942565b610491565b005b6101336101b83660046109a4565b60036020525f908152604090205481565b6101336101d73660046109a4565b60056020525f908152604090205481565b6100f161049f565b6101a86101fe366004610942565b6104ac565b61011a610211366004610942565b6104b6565b6101a86102243660046109c4565b61052c565b610133610237366004610a31565b600460209081525f928352604080842090915290825290205481565b5f805461025f90610a62565b80601f016020809104026020016040519081016040528092919081815260200182805461028b90610a62565b80156102d65780601f106102ad576101008083540402835291602001916102d6565b820191905f5260205f20905b8154815290600101906020018083116102b957829003601f168201915b505050505081565b335f8181526004602090815260408083206001600160a01b038716808552925280832085905551919290917f8c5be1e5ebec7d5bd14f71427d1e84f3dd0314c0f7b2291e5b200ac8c7c3b925906103389086815260200190565b60405180910390a35060015b92915050565b6001600160a01b0383165f9081526004602090815260408083203384529091528120545f1981146103a35761037f8382610aae565b6001600160a01b0386165f9081526004602090815260408083203384529091529020555b6001600160a01b0385165f90815260036020526040812080548592906103ca908490610aae565b90915550506001600160a01b038085165f81815260036020526040908190208054870190555190918716907fddf252ad1be2c89b69c2b068fc378daa952ba7f163c4a11628f55a4df523b3ef906104249087815260200190565b60405180910390a3506001949350505050565b5f7f0000000000000000000000000000000000000000000000000000000000000000461461046c5761046761077e565b905090565b507f000000000000000000000000000000000000000000000000000000000000000090565b61049b8282610816565b5050565b6001805461025f90610a62565b61049b8282610880565b335f908152600360205260408120805483919083906104d6908490610aae565b90915550506001600160a01b0383165f81815260036020526040908190208054850190555133907fddf252ad1be2c89b69c2b068fc378daa952ba7f163c4a11628f55a4df523b3ef906103389086815260200190565b428410156105815760405162461bcd60e51b815260206004820152601760248201527f5045524d49545f444541444c494e455f4558504952454400000000000000000060448201526064015b60405180910390fd5b5f600161058c610437565b6001600160a01b038a81165f8181526005602090815260409182902080546001810190915582517f6e71edae12b1b97f4d1f60370fef10105fa2faae0126114a169c64845d6126c98184015280840194909452938d166060840152608083018c905260a083019390935260c08083018b90528151808403909101815260e08301909152805192019190912061190160f01b6101008301526101028201929092526101228101919091526101420160408051601f1981840301815282825280516020918201205f84529083018083525260ff871690820152606081018590526080810184905260a0016020604051602081039080840390855afa158015610694573d5f803e3d5ffd5b5050604051601f1901519150506001600160a01b038116158015906106ca5750876001600160a01b0316816001600160a01b0316145b6107165760405162461bcd60e51b815260206004820152600e60248201527f494e56414c49445f5349474e45520000000000000000000000000000000000006044820152606401610578565b6001600160a01b039081165f9081526004602090815260408083208a8516808552908352928190208990555188815291928a16917f8c5be1e5ebec7d5bd14f71427d1e84f3dd0314c0f7b2291e5b200ac8c7c3b925910160405180910390a350505050505050565b5f7f8b73c3c69bb8fe3d512ecc4cf759cc79239f7b179b0ffacaa9a75d522b39400f5f6040516107ae9190610ac1565b6040805191829003822060208301939093528101919091527fc89efdaa54c0f20c7adf612882df0950f5a951637e0307cdcb4c672f298b8bc660608201524660808201523060a082015260c00160405160208183030381529060405280519060200120905090565b8060025f8282546108279190610b5d565b90915550506001600160a01b0382165f818152600360209081526040808320805486019055518481527fddf252ad1be2c89b69c2b068fc378daa952ba7f163c4a11628f55a4df523b3ef91015b60405180910390a35050565b6001600160a01b0382165f90815260036020526040812080548392906108a7908490610aae565b90915550506002805482900390556040518181525f906001600160a01b038416907fddf252ad1be2c89b69c2b068fc378daa952ba7f163c4a11628f55a4df523b3ef90602001610874565b602081525f82518060208401528060208501604085015e5f604082850101526040601f19601f83011684010191505092915050565b80356001600160a01b038116811461093d575f80fd5b919050565b5f8060408385031215610953575f80fd5b61095c83610927565b946020939093013593505050565b5f805f6060848603121561097c575f80fd5b61098584610927565b925061099360208501610927565b929592945050506040919091013590565b5f602082840312156109b4575f80fd5b6109bd82610927565b9392505050565b5f805f805f805f60e0888a0312156109da575f80fd5b6109e388610927565b96506109f160208901610927565b95506040880135945060608801359350608088013560ff81168114610a14575f80fd5b9699959850939692959460a0840135945060c09093013592915050565b5f8060408385031215610a42575f80fd5b610a4b83610927565b9150610a5960208401610927565b90509250929050565b600181811c90821680610a7657607f821691505b602082108103610a9457634e487b7160e01b5f52602260045260245ffd5b50919050565b634e487b7160e01b5f52601160045260245ffd5b8181038181111561034457610344610a9a565b5f8083545f8160011c90506001821680610adc57607f821691505b602082108103610afa57634e487b7160e01b5f52602260045260245ffd5b808015610b0e5760018114610b2357610b51565b60ff1984168752821515830287019450610b51565b5f888152602090205f5b84811015610b4957815489820152600190910190602001610b2d565b505082870194505b50929695505050505050565b8082018082111561034457610344610a9a56fea2646970667358221220e1e6bd0133b6ebe7d2621cf78161e8a0ec7cc1c56b35b923d31d6bcedec5099364736f6c634300081a0033000000000000000000000000000000000000000000000000000000000000006000000000000000000000000000000000000000000000000000000000000000a000000000000000000000000000000000000000000000000000000000000000120000000000000000000000000000000000000000000000000000000000000006546f6b656e3100000000000000000000000000000000000000000000000000000000000000000000000000000000000000000000000000000000000000000003544b310000000000000000000000000000000000000000000000000000000000",
        "nonce": "0xdf",
        "chainId": "0xaa36a7"
      },
      "additionalContracts": [],
      "isFixedGasLimit": false
    },
    {
      "hash": "0x2aa4a9498b9cb095306b52643d4130d8101f13cd1c874d45d2e857601feb602f",
      "transactionType": "CALL",
      "contractName": null,
      "contractAddress": "0x11d66f944aaa328ee87f5211128db92ee18eef01",
      "function": "approve(address,uint256)",
      "arguments": [
        "0x1f03f235e371202e49194F63C7096F5697848822",
        "115792089237316195423570985008687907853269984665640564039457584007913129639935"
      ],
      "transaction": {
        "from": "0x79fd1dcc5b3479379c33868c402b23b7b35e77d2",
        "to": "0x11d66f944aaa328ee87f5211128db92ee18eef01",
        "gas": "0xfad1",
        "value": "0x0",
        "input": "0x095ea7b30000000000000000000000001f03f235e371202e49194f63c7096f5697848822ffffffffffffffffffffffffffffffffffffffffffffffffffffffffffffffff",
        "nonce": "0xe0",
        "chainId": "0xaa36a7"
      },
      "additionalContracts": [],
      "isFixedGasLimit": false
    },
    {
      "hash": "0x8d6df76e8be9cd2ffd645508f2d6762aa61bc843cf1e901e37d386bc8f6ca4b9",
      "transactionType": "CALL",
      "contractName": null,
      "contractAddress": "0xdd8fb729b785f1c074a191f7f021fcba10142292",
      "function": "approve(address,uint256)",
      "arguments": [
        "0x1f03f235e371202e49194F63C7096F5697848822",
        "115792089237316195423570985008687907853269984665640564039457584007913129639935"
      ],
      "transaction": {
        "from": "0x79fd1dcc5b3479379c33868c402b23b7b35e77d2",
        "to": "0xdd8fb729b785f1c074a191f7f021fcba10142292",
        "gas": "0xfad1",
        "value": "0x0",
        "input": "0x095ea7b30000000000000000000000001f03f235e371202e49194f63c7096f5697848822ffffffffffffffffffffffffffffffffffffffffffffffffffffffffffffffff",
        "nonce": "0xe1",
        "chainId": "0xaa36a7"
      },
      "additionalContracts": [],
      "isFixedGasLimit": false
    },
    {
      "hash": "0xd6dba2355d099b9197e64475f932863b42064fc0c2be47b11eefcac60ab58356",
      "transactionType": "CALL",
      "contractName": null,
      "contractAddress": "0x11d66f944aaa328ee87f5211128db92ee18eef01",
      "function": "approve(address,uint256)",
      "arguments": [
        "0xEc9537B6D66c14E872365AB0EAE50dF7b254D4Fc",
        "115792089237316195423570985008687907853269984665640564039457584007913129639935"
      ],
      "transaction": {
        "from": "0x79fd1dcc5b3479379c33868c402b23b7b35e77d2",
        "to": "0x11d66f944aaa328ee87f5211128db92ee18eef01",
        "gas": "0xfad1",
        "value": "0x0",
        "input": "0x095ea7b3000000000000000000000000ec9537b6d66c14e872365ab0eae50df7b254d4fcffffffffffffffffffffffffffffffffffffffffffffffffffffffffffffffff",
        "nonce": "0xe2",
        "chainId": "0xaa36a7"
      },
      "additionalContracts": [],
      "isFixedGasLimit": false
    },
    {
      "hash": "0xdec7d2e9fdf4ead618db6386b28bf4e7e86d484119d8ccfbb350eef2db0dea59",
      "transactionType": "CALL",
      "contractName": null,
      "contractAddress": "0xdd8fb729b785f1c074a191f7f021fcba10142292",
      "function": "approve(address,uint256)",
      "arguments": [
        "0xEc9537B6D66c14E872365AB0EAE50dF7b254D4Fc",
        "115792089237316195423570985008687907853269984665640564039457584007913129639935"
      ],
      "transaction": {
        "from": "0x79fd1dcc5b3479379c33868c402b23b7b35e77d2",
        "to": "0xdd8fb729b785f1c074a191f7f021fcba10142292",
        "gas": "0xfad1",
        "value": "0x0",
        "input": "0x095ea7b3000000000000000000000000ec9537b6d66c14e872365ab0eae50df7b254d4fcffffffffffffffffffffffffffffffffffffffffffffffffffffffffffffffff",
        "nonce": "0xe3",
        "chainId": "0xaa36a7"
      },
      "additionalContracts": [],
      "isFixedGasLimit": false
    },
    {
      "hash": "0xe1e326e3b45290859d5c6090bfaac712545f6fecb0088d79b417f516d825b49c",
      "transactionType": "CALL",
      "contractName": null,
      "contractAddress": "0x11d66f944aaa328ee87f5211128db92ee18eef01",
      "function": "mint(address,uint256)",
      "arguments": [
        "0x79fd1DCC5B3479379c33868c402b23b7b35e77D2",
        "100000000000000000000"
      ],
      "transaction": {
        "from": "0x79fd1dcc5b3479379c33868c402b23b7b35e77d2",
        "to": "0x11d66f944aaa328ee87f5211128db92ee18eef01",
        "gas": "0x17086",
        "value": "0x0",
        "input": "0x40c10f1900000000000000000000000079fd1dcc5b3479379c33868c402b23b7b35e77d20000000000000000000000000000000000000000000000056bc75e2d63100000",
        "nonce": "0xe4",
        "chainId": "0xaa36a7"
      },
      "additionalContracts": [],
      "isFixedGasLimit": false
    },
    {
      "hash": "0xf5fd0b9884ae8d0118ccf51bd5c176ee180cc4c0996b2e1de9f3088366539a45",
      "transactionType": "CALL",
      "contractName": null,
      "contractAddress": "0xdd8fb729b785f1c074a191f7f021fcba10142292",
      "function": "mint(address,uint256)",
      "arguments": [
        "0x79fd1DCC5B3479379c33868c402b23b7b35e77D2",
        "100000000000000000000"
      ],
      "transaction": {
        "from": "0x79fd1dcc5b3479379c33868c402b23b7b35e77d2",
        "to": "0xdd8fb729b785f1c074a191f7f021fcba10142292",
        "gas": "0x17086",
        "value": "0x0",
        "input": "0x40c10f1900000000000000000000000079fd1dcc5b3479379c33868c402b23b7b35e77d20000000000000000000000000000000000000000000000056bc75e2d63100000",
        "nonce": "0xe5",
        "chainId": "0xaa36a7"
      },
      "additionalContracts": [],
      "isFixedGasLimit": false
    },
    {
      "hash": "0xff144552f5875620ebdc7a78d67bdc0e327bbe3356e93fa8e1bb55a965c6f6a2",
      "transactionType": "CREATE2",
      "contractName": "BasicHook",
      "contractAddress": "0x7170f8c99e5de38cb4795b3f87ec37cd5d8fc080",
      "function": null,
      "arguments": [
        "0xCa6DBBe730e31fDaACaA096821199EEED5AD84aE"
      ],
      "transaction": {
        "from": "0x79fd1dcc5b3479379c33868c402b23b7b35e77d2",
        "to": "0x4e59b44847b379578588920ca78fbf26c0b4956c",
        "gas": "0xd5e49",
        "value": "0x0",
        "input": "0x000000000000000000000000000000000000000000000000000000000000004f60a060405234801561000f575f80fd5b50604051610d2d380380610d2d83398101604081905261002e916102a4565b6001600160a01b038116608052806100453061004c565b50506102d1565b61013c81610137604080516101c0810182525f80825260208201819052918101829052606081018290526080810182905260a0810182905260c0810182905260e08101829052610100810182905261012081018290526101408101829052610160810182905261018081018290526101a081019190915250604080516101c0810182525f80825260208201819052918101829052606081018290526080810182905260a08101829052600160c082015260e08101829052610100810182905261012081018290526101408101829052610160810182905261018081018290526101a081019190915290565b61013f565b50565b80511515612000831615151415806101635750602081015115156110008316151514155b8061017a5750604081015115156108008316151514155b806101915750606081015115156104008316151514155b806101a85750608081015115156102008316151514155b806101bf575060a081015115156101008316151514155b806101d5575060c0810151151560808316151514155b806101eb575060e0810151151560408316151514155b806102025750610100810151151560208316151514155b806102195750610120810151151560108316151514155b806102305750610140810151151560088316151514155b806102475750610160810151151560048316151514155b8061025e5750610180810151151560028316151514155b8061027557506101a0810151151560018316151514155b1561028b5761028b630732d7b560e51b8361028f565b5050565b815f526001600160a01b03811660045260245ffd5b5f602082840312156102b4575f80fd5b81516001600160a01b03811681146102ca575f80fd5b9392505050565b608051610a3d6102f05f395f818161031501526103c00152610a3d5ff3fe608060405234801561000f575f80fd5b50600436106100e5575f3560e01c8063a910f80f11610088578063bfb6c95e11610063578063bfb6c95e14610206578063c4e833ce1461021c578063dc4c90d314610310578063e1b4af69146101f8575f80fd5b8063a910f80f146101b9578063b47b2fb1146101c7578063b6a8b0fa146101f8575f80fd5b8063575e24b4116100c3578063575e24b4146101285780636c2bbe7e1461016657806391dd7346146101995780639f063efc14610166575f80fd5b806321d0ee70146100e9578063259982e5146100e95780633440d8201461011a575b5f80fd5b6100fc6100f736600461052c565b61034f565b6040516001600160e01b031990911681526020015b60405180910390f35b6100fc6100f73660046105a3565b61013b61013636600461060d565b610369565b604080516001600160e01b03199094168452602084019290925262ffffff1690820152606001610111565b610179610174366004610667565b610398565b604080516001600160e01b03199093168352602083019190915201610111565b6101ac6101a73660046106f2565b6103b3565b6040516101119190610731565b6100fc6100f7366004610766565b6101d56101743660046107f6565b604080516001600160e01b03199093168352600f9190910b602083015201610111565b6100fc6100f7366004610859565b61020e5f5481565b604051908152602001610111565b610303604080516101c0810182525f80825260208201819052918101829052606081018290526080810182905260a0810182905260c0810182905260e08101829052610100810182905261012081018290526101408101829052610160810182905261018081018290526101a081019190915250604080516101c0810182525f80825260208201819052918101829052606081018290526080810182905260a08101829052600160c082015260e08101829052610100810182905261012081018290526101408101829052610160810182905261018081018290526101a081019190915290565b60405161011191906108b3565b6103377f000000000000000000000000000000000000000000000000000000000000000081565b6040516001600160a01b039091168152602001610111565b5f604051630a85dc2960e01b815260040160405180910390fd5b5f805481908190818061037b836109d4565b909155506315d7892d60e21b995f99508998509650505050505050565b5f80604051630a85dc2960e01b815260040160405180910390fd5b6060336001600160a01b037f000000000000000000000000000000000000000000000000000000000000000016146103fe5760405163570c108560e11b815260040160405180910390fd5b6104088383610411565b90505b92915050565b60605f80306001600160a01b0316858560405161042f9291906109f8565b5f604051808303815f865af19150503d805f8114610468576040519150601f19603f3d011682016040523d82523d5f602084013e61046d565b606091505b5091509150811561048157915061040b9050565b80515f036104a2576040516314815f4760e31b815260040160405180910390fd5b805160208201fd5b6001600160a01b03811681146104be575f80fd5b50565b5f60a082840312156104d1575f80fd5b50919050565b5f608082840312156104d1575f80fd5b5f8083601f8401126104f7575f80fd5b50813567ffffffffffffffff81111561050e575f80fd5b602083019150836020828501011115610525575f80fd5b9250929050565b5f805f805f6101608688031215610541575f80fd5b853561054c816104aa565b945061055b87602088016104c1565b935061056a8760c088016104d7565b925061014086013567ffffffffffffffff811115610586575f80fd5b610592888289016104e7565b969995985093965092949392505050565b5f805f805f61010086880312156105b8575f80fd5b85356105c3816104aa565b94506105d287602088016104c1565b935060c08601356105e2816104aa565b925060e086013567ffffffffffffffff811115610586575f80fd5b5f606082840312156104d1575f80fd5b5f805f805f6101408688031215610622575f80fd5b853561062d816104aa565b945061063c87602088016104c1565b935061064b8760c088016105fd565b925061012086013567ffffffffffffffff811115610586575f80fd5b5f805f805f805f6101a0888a03121561067e575f80fd5b8735610689816104aa565b96506106988960208a016104c1565b95506106a78960c08a016104d7565b94506101408801359350610160880135925061018088013567ffffffffffffffff8111156106d3575f80fd5b6106df8a828b016104e7565b989b979a50959850939692959293505050565b5f8060208385031215610703575f80fd5b823567ffffffffffffffff811115610719575f80fd5b610725858286016104e7565b90969095509350505050565b602081525f82518060208401528060208501604085015e5f604082850101526040601f19601f83011684010191505092915050565b5f805f805f80610120878903121561077c575f80fd5b8635610787816104aa565b955061079688602089016104c1565b945060c08701356107a6816104aa565b935060e0870135600281900b81146107bc575f80fd5b925061010087013567ffffffffffffffff8111156107d8575f80fd5b6107e489828a016104e7565b979a9699509497509295939492505050565b5f805f805f80610160878903121561080c575f80fd5b8635610817816104aa565b955061082688602089016104c1565b94506108358860c089016105fd565b9350610120870135925061014087013567ffffffffffffffff8111156107d8575f80fd5b5f805f805f80610120878903121561086f575f80fd5b863561087a816104aa565b955061088988602089016104c1565b945060c0870135935060e0870135925061010087013567ffffffffffffffff8111156107d8575f80fd5b8151151581526101c0810160208301516108d1602084018215159052565b5060408301516108e5604084018215159052565b5060608301516108f9606084018215159052565b50608083015161090d608084018215159052565b5060a083015161092160a084018215159052565b5060c083015161093560c084018215159052565b5060e083015161094960e084018215159052565b5061010083015161095f61010084018215159052565b5061012083015161097561012084018215159052565b5061014083015161098b61014084018215159052565b506101608301516109a161016084018215159052565b506101808301516109b761018084018215159052565b506101a08301516109cd6101a084018215159052565b5092915050565b5f600182016109f157634e487b7160e01b5f52601160045260245ffd5b5060010190565b818382375f910190815291905056fea2646970667358221220de594e82790e6e81f02cf03c2b1e69a55452cebec1e44737f2553044db3a477064736f6c634300081a0033000000000000000000000000ca6dbbe730e31fdaacaa096821199eeed5ad84ae",
        "nonce": "0xe6",
        "chainId": "0xaa36a7"
      },
      "additionalContracts": [],
      "isFixedGasLimit": false
    },
    {
      "hash": "0x6a3d6a064c5a0b6897dea4301f87bd22bc4def728562365101921161743767f3",
      "transactionType": "CALL",
      "contractName": null,
      "contractAddress": "0xca6dbbe730e31fdaacaa096821199eeed5ad84ae",
      "function": "initialize((address,address,uint24,int24,address),uint160,bytes)",
      "arguments": [
        "(0x11d66F944AAa328ee87f5211128Db92ee18eEF01, 0xDd8fb729b785F1c074a191f7f021FcBa10142292, 3000, 120, 0x0000000000000000000000000000000000000000)",
        "79228162514264337593543950336",
        "0x"
      ],
      "transaction": {
        "from": "0x79fd1dcc5b3479379c33868c402b23b7b35e77d2",
        "to": "0xca6dbbe730e31fdaacaa096821199eeed5ad84ae",
        "gas": "0x13b74",
        "value": "0x0",
        "input": "0x695c5bf500000000000000000000000011d66f944aaa328ee87f5211128db92ee18eef01000000000000000000000000dd8fb729b785f1c074a191f7f021fcba101422920000000000000000000000000000000000000000000000000000000000000bb800000000000000000000000000000000000000000000000000000000000000780000000000000000000000000000000000000000000000000000000000000000000000000000000000000000000000000000000100000000000000000000000000000000000000000000000000000000000000000000000000000000000000e00000000000000000000000000000000000000000000000000000000000000000",
        "nonce": "0xe7",
        "chainId": "0xaa36a7"
      },
      "additionalContracts": [],
      "isFixedGasLimit": false
    },
    {
      "hash": "0x1ef4983e17bba715113f9669ff17ca1a962659a2e2588a0302304462ea3e8c28",
      "transactionType": "CALL",
      "contractName": null,
      "contractAddress": "0x1f03f235e371202e49194f63c7096f5697848822",
      "function": "modifyLiquidity((address,address,uint24,int24,address),(int24,int24,int256,bytes32),bytes)",
      "arguments": [
        "(0x11d66F944AAa328ee87f5211128Db92ee18eEF01, 0xDd8fb729b785F1c074a191f7f021FcBa10142292, 3000, 120, 0x0000000000000000000000000000000000000000)",
        "(-120, 120, 10000000000000000000, 0x0000000000000000000000000000000000000000000000000000000000000000)",
        "0x"
      ],
      "transaction": {
        "from": "0x79fd1dcc5b3479379c33868c402b23b7b35e77d2",
        "to": "0x1f03f235e371202e49194f63c7096f5697848822",
        "gas": "0x64755",
        "value": "0x0",
        "input": "0x5a6bcfda00000000000000000000000011d66f944aaa328ee87f5211128db92ee18eef01000000000000000000000000dd8fb729b785f1c074a191f7f021fcba101422920000000000000000000000000000000000000000000000000000000000000bb800000000000000000000000000000000000000000000000000000000000000780000000000000000000000000000000000000000000000000000000000000000ffffffffffffffffffffffffffffffffffffffffffffffffffffffffffffff8800000000000000000000000000000000000000000000000000000000000000780000000000000000000000000000000000000000000000008ac7230489e80000000000000000000000000000000000000000000000000000000000000000000000000000000000000000000000000000000000000000000000000000000001400000000000000000000000000000000000000000000000000000000000000000",
        "nonce": "0xe8",
        "chainId": "0xaa36a7"
      },
      "additionalContracts": [],
      "isFixedGasLimit": false
    }
  ],
  "receipts": [
    {
      "status": "0x1",
      "cumulativeGasUsed": "0xb7ef28",
      "logs": [],
      "logsBloom": "0x00000000000000000000000000000000000000000000000000000000000000000000000000000000000000000000000000000000000000000000000000000000000000000000000000000000000000000000000000000000000000000000000000000000000000000000000000000000000000000000000000000000000000000000000000000000000000000000000000000000000000000000000000000000000000000000000000000000000000000000000000000000000000000000000000000000000000000000000000000000000000000000000000000000000000000000000000000000000000000000000000000000000000000000000000000000",
      "type": "0x2",
      "transactionHash": "0xca6a93fb74142d8cc1ba182e8ebad23aa40d93633e53719653a5f46084498b5f",
      "transactionIndex": "0x55",
      "blockHash": "0x80e8bbfe112370fc643503d918867ed4f792c0db7811785e84dba481e0941488",
      "blockNumber": "0x65fdd6",
      "gasUsed": "0xb99d0",
      "effectiveGasPrice": "0xeb255ffa",
      "from": "0x79fd1dcc5b3479379c33868c402b23b7b35e77d2",
      "to": null,
      "contractAddress": "0x11d66f944aaa328ee87f5211128db92ee18eef01"
    },
    {
      "status": "0x1",
      "cumulativeGasUsed": "0xc388f8",
      "logs": [],
      "logsBloom": "0x00000000000000000000000000000000000000000000000000000000000000000000000000000000000000000000000000000000000000000000000000000000000000000000000000000000000000000000000000000000000000000000000000000000000000000000000000000000000000000000000000000000000000000000000000000000000000000000000000000000000000000000000000000000000000000000000000000000000000000000000000000000000000000000000000000000000000000000000000000000000000000000000000000000000000000000000000000000000000000000000000000000000000000000000000000000",
      "type": "0x2",
      "transactionHash": "0x9555a8816bd706db3f14ff27e1628ae2215b417026150b860715151f76d9dea5",
      "transactionIndex": "0x56",
      "blockHash": "0x80e8bbfe112370fc643503d918867ed4f792c0db7811785e84dba481e0941488",
      "blockNumber": "0x65fdd6",
      "gasUsed": "0xb99d0",
      "effectiveGasPrice": "0xeb255ffa",
      "from": "0x79fd1dcc5b3479379c33868c402b23b7b35e77d2",
      "to": null,
      "contractAddress": "0xdd8fb729b785f1c074a191f7f021fcba10142292"
    },
    {
      "status": "0x1",
      "cumulativeGasUsed": "0xc43e8f",
      "logs": [
        {
          "address": "0x11d66f944aaa328ee87f5211128db92ee18eef01",
          "topics": [
            "0x8c5be1e5ebec7d5bd14f71427d1e84f3dd0314c0f7b2291e5b200ac8c7c3b925",
            "0x00000000000000000000000079fd1dcc5b3479379c33868c402b23b7b35e77d2",
            "0x0000000000000000000000001f03f235e371202e49194f63c7096f5697848822"
          ],
          "data": "0xffffffffffffffffffffffffffffffffffffffffffffffffffffffffffffffff",
          "blockHash": "0x80e8bbfe112370fc643503d918867ed4f792c0db7811785e84dba481e0941488",
          "blockNumber": "0x65fdd6",
          "transactionHash": "0x2aa4a9498b9cb095306b52643d4130d8101f13cd1c874d45d2e857601feb602f",
          "transactionIndex": "0x57",
          "logIndex": "0x7b",
          "removed": false
        }
      ],
      "logsBloom": "0x00000000000000000000000000000000000000000000000210000000000000000000000000000000000000000000000000000000000000000000000000200000000000000000000000000000000000000000000040000000000000000000000000000000000002000000000000000000000000000080000000000000000000000000000000000000000000000000000000000000000000000000000000000000020000000001000000000000000000000000000000000000000000000000000100000000000000000000000000000000000000000000000000001000000000000010000100000000000000000000000000000000000000000000000000000000",
      "type": "0x2",
      "transactionHash": "0x2aa4a9498b9cb095306b52643d4130d8101f13cd1c874d45d2e857601feb602f",
      "transactionIndex": "0x57",
      "blockHash": "0x80e8bbfe112370fc643503d918867ed4f792c0db7811785e84dba481e0941488",
      "blockNumber": "0x65fdd6",
      "gasUsed": "0xb597",
      "effectiveGasPrice": "0xeb255ffa",
      "from": "0x79fd1dcc5b3479379c33868c402b23b7b35e77d2",
      "to": "0x11d66f944aaa328ee87f5211128db92ee18eef01",
      "contractAddress": null
    },
    {
      "status": "0x1",
      "cumulativeGasUsed": "0xc4f426",
      "logs": [
        {
          "address": "0xdd8fb729b785f1c074a191f7f021fcba10142292",
          "topics": [
            "0x8c5be1e5ebec7d5bd14f71427d1e84f3dd0314c0f7b2291e5b200ac8c7c3b925",
            "0x00000000000000000000000079fd1dcc5b3479379c33868c402b23b7b35e77d2",
            "0x0000000000000000000000001f03f235e371202e49194f63c7096f5697848822"
          ],
          "data": "0xffffffffffffffffffffffffffffffffffffffffffffffffffffffffffffffff",
          "blockHash": "0x80e8bbfe112370fc643503d918867ed4f792c0db7811785e84dba481e0941488",
          "blockNumber": "0x65fdd6",
          "transactionHash": "0x8d6df76e8be9cd2ffd645508f2d6762aa61bc843cf1e901e37d386bc8f6ca4b9",
          "transactionIndex": "0x58",
          "logIndex": "0x7c",
          "removed": false
        }
      ],
      "logsBloom": "0x00000000000000000000000000000010000000000000000000000000000000000000000000000000000000000000000000000000000000000000000000200000000000000000000000000000000000000000000042000000000000000000000000000000000002000000000000000000000000000080000000000000000000000000000000000000000000000000008000000000000000000000000000000000020000000000000000000000000000000000000000000000000000000000000100000000000000000000000000000000000000000000000000001000000000000010000100000000000000000000000000000000000000000000000000000000",
      "type": "0x2",
      "transactionHash": "0x8d6df76e8be9cd2ffd645508f2d6762aa61bc843cf1e901e37d386bc8f6ca4b9",
      "transactionIndex": "0x58",
      "blockHash": "0x80e8bbfe112370fc643503d918867ed4f792c0db7811785e84dba481e0941488",
      "blockNumber": "0x65fdd6",
      "gasUsed": "0xb597",
      "effectiveGasPrice": "0xeb255ffa",
      "from": "0x79fd1dcc5b3479379c33868c402b23b7b35e77d2",
      "to": "0xdd8fb729b785f1c074a191f7f021fcba10142292",
      "contractAddress": null
    },
    {
      "status": "0x1",
      "cumulativeGasUsed": "0xc5a9bd",
      "logs": [
        {
          "address": "0x11d66f944aaa328ee87f5211128db92ee18eef01",
          "topics": [
            "0x8c5be1e5ebec7d5bd14f71427d1e84f3dd0314c0f7b2291e5b200ac8c7c3b925",
            "0x00000000000000000000000079fd1dcc5b3479379c33868c402b23b7b35e77d2",
            "0x000000000000000000000000ec9537b6d66c14e872365ab0eae50df7b254d4fc"
          ],
          "data": "0xffffffffffffffffffffffffffffffffffffffffffffffffffffffffffffffff",
          "blockHash": "0x80e8bbfe112370fc643503d918867ed4f792c0db7811785e84dba481e0941488",
          "blockNumber": "0x65fdd6",
          "transactionHash": "0xd6dba2355d099b9197e64475f932863b42064fc0c2be47b11eefcac60ab58356",
          "transactionIndex": "0x59",
          "logIndex": "0x7d",
          "removed": false
        }
      ],
      "logsBloom": "0x00000000000000000000000000000000000000000000000210000000000000000000000000000000000000000000000000000810000000000000000000200000000000000000000000000000000000000000000000000000000000000000000000000000000002000000000000000000000000000000000000000000000000000000000000000000000000000000000000000000000000000000000000000000020000000001000000000000040000000000000000000000000000000000000100000000000000000000000000000000000000000000000000000000000000000010000100000000000000000000000000000000000000000000000000000000",
      "type": "0x2",
      "transactionHash": "0xd6dba2355d099b9197e64475f932863b42064fc0c2be47b11eefcac60ab58356",
      "transactionIndex": "0x59",
      "blockHash": "0x80e8bbfe112370fc643503d918867ed4f792c0db7811785e84dba481e0941488",
      "blockNumber": "0x65fdd6",
      "gasUsed": "0xb597",
      "effectiveGasPrice": "0xeb255ffa",
      "from": "0x79fd1dcc5b3479379c33868c402b23b7b35e77d2",
      "to": "0x11d66f944aaa328ee87f5211128db92ee18eef01",
      "contractAddress": null
    },
    {
      "status": "0x1",
      "cumulativeGasUsed": "0xc65f54",
      "logs": [
        {
          "address": "0xdd8fb729b785f1c074a191f7f021fcba10142292",
          "topics": [
            "0x8c5be1e5ebec7d5bd14f71427d1e84f3dd0314c0f7b2291e5b200ac8c7c3b925",
            "0x00000000000000000000000079fd1dcc5b3479379c33868c402b23b7b35e77d2",
            "0x000000000000000000000000ec9537b6d66c14e872365ab0eae50df7b254d4fc"
          ],
          "data": "0xffffffffffffffffffffffffffffffffffffffffffffffffffffffffffffffff",
          "blockHash": "0x80e8bbfe112370fc643503d918867ed4f792c0db7811785e84dba481e0941488",
          "blockNumber": "0x65fdd6",
          "transactionHash": "0xdec7d2e9fdf4ead618db6386b28bf4e7e86d484119d8ccfbb350eef2db0dea59",
          "transactionIndex": "0x5a",
          "logIndex": "0x7e",
          "removed": false
        }
      ],
      "logsBloom": "0x00000000000000000000000000000010000000000000000000000000000000000000000000000000000000000000000000000810000000000000000000200000000000000000000000000000000000000000000002000000000000000000000000000000000002000000000000000000000000000000000000000000000000000000000000000000000000000000008000000000000000000000000000000000020000000000000000000000040000000000000000000000000000000000000100000000000000000000000000000000000000000000000000000000000000000010000100000000000000000000000000000000000000000000000000000000",
      "type": "0x2",
      "transactionHash": "0xdec7d2e9fdf4ead618db6386b28bf4e7e86d484119d8ccfbb350eef2db0dea59",
      "transactionIndex": "0x5a",
      "blockHash": "0x80e8bbfe112370fc643503d918867ed4f792c0db7811785e84dba481e0941488",
      "blockNumber": "0x65fdd6",
      "gasUsed": "0xb597",
      "effectiveGasPrice": "0xeb255ffa",
      "from": "0x79fd1dcc5b3479379c33868c402b23b7b35e77d2",
      "to": "0xdd8fb729b785f1c074a191f7f021fcba10142292",
      "contractAddress": null
    },
    {
      "status": "0x1",
      "cumulativeGasUsed": "0xc76a23",
      "logs": [
        {
          "address": "0x11d66f944aaa328ee87f5211128db92ee18eef01",
          "topics": [
            "0xddf252ad1be2c89b69c2b068fc378daa952ba7f163c4a11628f55a4df523b3ef",
            "0x0000000000000000000000000000000000000000000000000000000000000000",
            "0x00000000000000000000000079fd1dcc5b3479379c33868c402b23b7b35e77d2"
          ],
          "data": "0x0000000000000000000000000000000000000000000000056bc75e2d63100000",
          "blockHash": "0x80e8bbfe112370fc643503d918867ed4f792c0db7811785e84dba481e0941488",
          "blockNumber": "0x65fdd6",
          "transactionHash": "0xe1e326e3b45290859d5c6090bfaac712545f6fecb0088d79b417f516d825b49c",
          "transactionIndex": "0x5b",
          "logIndex": "0x7f",
          "removed": false
        }
      ],
      "logsBloom": "0x00000000000000000000000000000000000000000000000210000000000000000000000000000000000000000000000000000000000000000000000000000000000000000000000000000008000000000000000000000000000000000000000000000000020002000000000000000800000000000000000000000010000000000000000000000000000000000000000000000000000000000000000000000000000000000001000000000000000000000000000000000000000000000000000100000002000000000000000000000000000000000000000000000000000020000000000100000000000000000000000000000000000000000000000000000000",
      "type": "0x2",
      "transactionHash": "0xe1e326e3b45290859d5c6090bfaac712545f6fecb0088d79b417f516d825b49c",
      "transactionIndex": "0x5b",
      "blockHash": "0x80e8bbfe112370fc643503d918867ed4f792c0db7811785e84dba481e0941488",
      "blockNumber": "0x65fdd6",
      "gasUsed": "0x10acf",
      "effectiveGasPrice": "0xeb255ffa",
      "from": "0x79fd1dcc5b3479379c33868c402b23b7b35e77d2",
      "to": "0x11d66f944aaa328ee87f5211128db92ee18eef01",
      "contractAddress": null
    },
    {
      "status": "0x1",
      "cumulativeGasUsed": "0xc874f2",
      "logs": [
        {
          "address": "0xdd8fb729b785f1c074a191f7f021fcba10142292",
          "topics": [
            "0xddf252ad1be2c89b69c2b068fc378daa952ba7f163c4a11628f55a4df523b3ef",
            "0x0000000000000000000000000000000000000000000000000000000000000000",
            "0x00000000000000000000000079fd1dcc5b3479379c33868c402b23b7b35e77d2"
          ],
          "data": "0x0000000000000000000000000000000000000000000000056bc75e2d63100000",
          "blockHash": "0x80e8bbfe112370fc643503d918867ed4f792c0db7811785e84dba481e0941488",
          "blockNumber": "0x65fdd6",
          "transactionHash": "0xf5fd0b9884ae8d0118ccf51bd5c176ee180cc4c0996b2e1de9f3088366539a45",
          "transactionIndex": "0x5c",
          "logIndex": "0x80",
          "removed": false
        }
      ],
      "logsBloom": "0x00000000000000000000000000000010000000000000000000000000000000000000000000000000000000000000000000000000000000000000000000000000000000000000000000000008000000000000000002000000000000000000000000000000020002000000000000000800000000000000000000000010000000000000000000000000000000000000008000000000000000000000000000000000000000000000000000000000000000000000000000000000000000000000000100000002000000000000000000000000000000000000000000000000000020000000000100000000000000000000000000000000000000000000000000000000",
      "type": "0x2",
      "transactionHash": "0xf5fd0b9884ae8d0118ccf51bd5c176ee180cc4c0996b2e1de9f3088366539a45",
      "transactionIndex": "0x5c",
      "blockHash": "0x80e8bbfe112370fc643503d918867ed4f792c0db7811785e84dba481e0941488",
      "blockNumber": "0x65fdd6",
      "gasUsed": "0x10acf",
      "effectiveGasPrice": "0xeb255ffa",
      "from": "0x79fd1dcc5b3479379c33868c402b23b7b35e77d2",
      "to": "0xdd8fb729b785f1c074a191f7f021fcba10142292",
      "contractAddress": null
    },
    {
      "status": "0x1",
      "cumulativeGasUsed": "0xd2229f",
      "logs": [],
      "logsBloom": "0x00000000000000000000000000000000000000000000000000000000000000000000000000000000000000000000000000000000000000000000000000000000000000000000000000000000000000000000000000000000000000000000000000000000000000000000000000000000000000000000000000000000000000000000000000000000000000000000000000000000000000000000000000000000000000000000000000000000000000000000000000000000000000000000000000000000000000000000000000000000000000000000000000000000000000000000000000000000000000000000000000000000000000000000000000000000",
      "type": "0x2",
      "transactionHash": "0xff144552f5875620ebdc7a78d67bdc0e327bbe3356e93fa8e1bb55a965c6f6a2",
      "transactionIndex": "0x5d",
      "blockHash": "0x80e8bbfe112370fc643503d918867ed4f792c0db7811785e84dba481e0941488",
      "blockNumber": "0x65fdd6",
      "gasUsed": "0x9adad",
      "effectiveGasPrice": "0xeb255ffa",
      "from": "0x79fd1dcc5b3479379c33868c402b23b7b35e77d2",
      "to": "0x4e59b44847b379578588920ca78fbf26c0b4956c",
      "contractAddress": null
    },
    {
      "status": "0x1",
      "cumulativeGasUsed": "0xd2fa51",
      "logs": [
        {
          "address": "0xca6dbbe730e31fdaacaa096821199eeed5ad84ae",
          "topics": [
            "0xdd466e674ea557f56295e2d0218a125ea4b4f0f6f3307b95f85e6110838d6438",
            "0x1d7f83029ad4aae2da0f1c75b8fffee787c9f862ca21d7c4befe3a0b81b7b0ce",
            "0x00000000000000000000000011d66f944aaa328ee87f5211128db92ee18eef01",
            "0x000000000000000000000000dd8fb729b785f1c074a191f7f021fcba10142292"
          ],
          "data": "0x0000000000000000000000000000000000000000000000000000000000000bb80000000000000000000000000000000000000000000000000000000000000078000000000000000000000000000000000000000000000000000000000000000000000000000000000000000000000000000000010000000000000000000000000000000000000000000000000000000000000000000000000000000000000000",
          "blockHash": "0x80e8bbfe112370fc643503d918867ed4f792c0db7811785e84dba481e0941488",
          "blockNumber": "0x65fdd6",
          "transactionHash": "0x6a3d6a064c5a0b6897dea4301f87bd22bc4def728562365101921161743767f3",
          "transactionIndex": "0x5e",
          "logIndex": "0x81",
          "removed": false
        }
      ],
      "logsBloom": "0x00000000000000000000000000000000000000000000000000000100000000000000000000000000100000000000000000000000000000000000000004000000000000000000008002000000000000000000080000000000000000000000002000004000000000000000000000000000000000000000000000000000000000000000000000000008000000000000000000000001000000000000000000200000040000000000000000000000000000002000000000000000000000000000000000000000000000000000000000000000000000000000000000000000400000000000000000000000000000000000000040000000000000000000000000000000",
      "type": "0x2",
      "transactionHash": "0x6a3d6a064c5a0b6897dea4301f87bd22bc4def728562365101921161743767f3",
      "transactionIndex": "0x5e",
      "blockHash": "0x80e8bbfe112370fc643503d918867ed4f792c0db7811785e84dba481e0941488",
      "blockNumber": "0x65fdd6",
      "gasUsed": "0xd7b2",
      "effectiveGasPrice": "0xeb255ffa",
      "from": "0x79fd1dcc5b3479379c33868c402b23b7b35e77d2",
      "to": "0xca6dbbe730e31fdaacaa096821199eeed5ad84ae",
      "contractAddress": null
    },
    {
      "status": "0x1",
      "cumulativeGasUsed": "0xd78600",
      "logs": [
        {
          "address": "0xca6dbbe730e31fdaacaa096821199eeed5ad84ae",
          "topics": [
            "0xf208f4912782fd25c7f114ca3723a2d5dd6f3bcc3ac8db5af63baa85f711d5ec",
            "0x1d7f83029ad4aae2da0f1c75b8fffee787c9f862ca21d7c4befe3a0b81b7b0ce",
            "0x0000000000000000000000001f03f235e371202e49194f63c7096f5697848822"
          ],
          "data": "0xffffffffffffffffffffffffffffffffffffffffffffffffffffffffffffff8800000000000000000000000000000000000000000000000000000000000000780000000000000000000000000000000000000000000000008ac7230489e800000000000000000000000000000000000000000000000000000000000000000000",
          "blockHash": "0x80e8bbfe112370fc643503d918867ed4f792c0db7811785e84dba481e0941488",
          "blockNumber": "0x65fdd6",
          "transactionHash": "0x1ef4983e17bba715113f9669ff17ca1a962659a2e2588a0302304462ea3e8c28",
          "transactionIndex": "0x5f",
          "logIndex": "0x82",
          "removed": false
        },
        {
          "address": "0x11d66f944aaa328ee87f5211128db92ee18eef01",
          "topics": [
            "0xddf252ad1be2c89b69c2b068fc378daa952ba7f163c4a11628f55a4df523b3ef",
            "0x00000000000000000000000079fd1dcc5b3479379c33868c402b23b7b35e77d2",
            "0x000000000000000000000000ca6dbbe730e31fdaacaa096821199eeed5ad84ae"
          ],
          "data": "0x00000000000000000000000000000000000000000000000000d48396878c14b2",
          "blockHash": "0x80e8bbfe112370fc643503d918867ed4f792c0db7811785e84dba481e0941488",
          "blockNumber": "0x65fdd6",
          "transactionHash": "0x1ef4983e17bba715113f9669ff17ca1a962659a2e2588a0302304462ea3e8c28",
          "transactionIndex": "0x5f",
          "logIndex": "0x83",
          "removed": false
        },
        {
          "address": "0xdd8fb729b785f1c074a191f7f021fcba10142292",
          "topics": [
            "0xddf252ad1be2c89b69c2b068fc378daa952ba7f163c4a11628f55a4df523b3ef",
            "0x00000000000000000000000079fd1dcc5b3479379c33868c402b23b7b35e77d2",
            "0x000000000000000000000000ca6dbbe730e31fdaacaa096821199eeed5ad84ae"
          ],
          "data": "0x00000000000000000000000000000000000000000000000000d48396878c14b2",
          "blockHash": "0x80e8bbfe112370fc643503d918867ed4f792c0db7811785e84dba481e0941488",
          "blockNumber": "0x65fdd6",
          "transactionHash": "0x1ef4983e17bba715113f9669ff17ca1a962659a2e2588a0302304462ea3e8c28",
          "transactionIndex": "0x5f",
          "logIndex": "0x84",
          "removed": false
        }
      ],
      "logsBloom": "0x00000000000000000000000000000010000000000000000210000100000000010000000000000000100000000000000000000000000000000000000000000000000000000000000000000008000000000000000042800000000000000000000000004000000002000000000000000000000000000080000000000010000000000000000001000000000000000000008000000000000000000000000000000000040004000001000000000000000000002000000000000000000000000000000100000002000000000000000000000000040000000000000000001000400000000000000100000000000000000000000004000000000000000000000000000000",
      "type": "0x2",
      "transactionHash": "0x1ef4983e17bba715113f9669ff17ca1a962659a2e2588a0302304462ea3e8c28",
      "transactionIndex": "0x5f",
      "blockHash": "0x80e8bbfe112370fc643503d918867ed4f792c0db7811785e84dba481e0941488",
      "blockNumber": "0x65fdd6",
      "gasUsed": "0x48baf",
      "effectiveGasPrice": "0xeb255ffa",
      "from": "0x79fd1dcc5b3479379c33868c402b23b7b35e77d2",
      "to": "0x1f03f235e371202e49194f63c7096f5697848822",
      "contractAddress": null
    }
  ],
  "libraries": [],
  "pending": [],
  "returns": {},
  "timestamp": 1726234149,
  "chain": 11155111,
  "commit": "83fc4e5"
}